{
    "abi": [
        {
            "type": "constructor",
            "inputs": [
                {
                    "name": "_token",
                    "type": "address",
                    "internalType": "contract IERC20"
                }
            ],
            "stateMutability": "nonpayable"
        },
        {
            "type": "function",
            "name": "autoComplete",
            "inputs": [
                {
                    "name": "bountyId",
                    "type": "uint256",
                    "internalType": "uint256"
                }
            ],
            "outputs": [],
            "stateMutability": "nonpayable"
        },
        {
            "type": "function",
            "name": "batchCompleteBounties",
            "inputs": [
                {
                    "name": "bountyIds",
                    "type": "uint256[]",
                    "internalType": "uint256[]"
                }
            ],
            "outputs": [],
            "stateMutability": "nonpayable"
        },
        {
            "type": "function",
            "name": "bounties",
            "inputs": [
                {
                    "name": "",
                    "type": "uint256",
                    "internalType": "uint256"
                }
            ],
            "outputs": [
                {
                    "name": "description",
                    "type": "string",
                    "internalType": "string"
                },
                {
                    "name": "poster",
                    "type": "address",
                    "internalType": "address"
                },
                {
                    "name": "worker",
                    "type": "address",
                    "internalType": "address"
                },
                {
                    "name": "stakeAmount",
                    "type": "uint256",
                    "internalType": "uint256"
                },
                {
                    "name": "tipAmount",
                    "type": "uint256",
                    "internalType": "uint256"
                },
                {
                    "name": "deadline",
                    "type": "uint256",
                    "internalType": "uint256"
                },
                {
                    "name": "status",
                    "type": "uint8",
                    "internalType": "enum FlashBounty.BountyStatus"
                },
                {
                    "name": "createdAt",
                    "type": "uint256",
                    "internalType": "uint256"
                },
                {
                    "name": "claimedAt",
                    "type": "uint256",
                    "internalType": "uint256"
                },
                {
                    "name": "submittedAt",
                    "type": "uint256",
                    "internalType": "uint256"
                },
                {
                    "name": "completedAt",
                    "type": "uint256",
                    "internalType": "uint256"
                },
                {
                    "name": "proofHash",
                    "type": "string",
                    "internalType": "string"
                },
                {
                    "name": "category",
                    "type": "string",
                    "internalType": "string"
                },
                {
                    "name": "fundsReleased",
                    "type": "bool",
                    "internalType": "bool"
                }
            ],
            "stateMutability": "view"
        },
        {
            "type": "function",
            "name": "bountyCounter",
            "inputs": [],
            "outputs": [
                {
                    "name": "",
                    "type": "uint256",
                    "internalType": "uint256"
                }
            ],
            "stateMutability": "view"
        },
        {
            "type": "function",
            "name": "canAutoComplete",
            "inputs": [
                {
                    "name": "bountyId",
                    "type": "uint256",
                    "internalType": "uint256"
                },
                {
                    "name": "user",
                    "type": "address",
                    "internalType": "address"
                }
            ],
            "outputs": [
                {
                    "name": "",
                    "type": "bool",
                    "internalType": "bool"
                }
            ],
            "stateMutability": "view"
        },
        {
            "type": "function",
            "name": "canCancel",
            "inputs": [
                {
                    "name": "bountyId",
                    "type": "uint256",
                    "internalType": "uint256"
                },
                {
                    "name": "user",
                    "type": "address",
                    "internalType": "address"
                }
            ],
            "outputs": [
                {
                    "name": "",
                    "type": "bool",
                    "internalType": "bool"
                }
            ],
            "stateMutability": "view"
        },
        {
            "type": "function",
            "name": "canComplete",
            "inputs": [
                {
                    "name": "bountyId",
                    "type": "uint256",
                    "internalType": "uint256"
                },
                {
                    "name": "user",
                    "type": "address",
                    "internalType": "address"
                }
            ],
            "outputs": [
                {
                    "name": "",
                    "type": "bool",
                    "internalType": "bool"
                }
            ],
            "stateMutability": "view"
        },
        {
            "type": "function",
            "name": "cancelBounty",
            "inputs": [
                {
                    "name": "bountyId",
                    "type": "uint256",
                    "internalType": "uint256"
                },
                {
                    "name": "reason",
                    "type": "string",
                    "internalType": "string"
                }
            ],
            "outputs": [],
            "stateMutability": "nonpayable"
        },
        {
            "type": "function",
            "name": "categorizedBounties",
            "inputs": [
                {
                    "name": "",
                    "type": "string",
                    "internalType": "string"
                },
                {
                    "name": "",
                    "type": "uint256",
                    "internalType": "uint256"
                }
            ],
            "outputs": [
                {
                    "name": "",
                    "type": "uint256",
                    "internalType": "uint256"
                }
            ],
            "stateMutability": "view"
        },
        {
            "type": "function",
            "name": "claimBounty",
            "inputs": [
                {
                    "name": "bountyId",
                    "type": "uint256",
                    "internalType": "uint256"
                }
            ],
            "outputs": [],
            "stateMutability": "nonpayable"
        },
        {
            "type": "function",
            "name": "completeBounty",
            "inputs": [
                {
                    "name": "bountyId",
                    "type": "uint256",
                    "internalType": "uint256"
                }
            ],
            "outputs": [],
            "stateMutability": "nonpayable"
        },
        {
            "type": "function",
            "name": "getBountiesByCategory",
            "inputs": [
                {
                    "name": "category",
                    "type": "string",
                    "internalType": "string"
                }
            ],
            "outputs": [
                {
                    "name": "",
                    "type": "uint256[]",
                    "internalType": "uint256[]"
                }
            ],
            "stateMutability": "view"
        },
        {
            "type": "function",
            "name": "getBountiesByStatus",
            "inputs": [
                {
                    "name": "status",
                    "type": "uint8",
                    "internalType": "enum FlashBounty.BountyStatus"
                }
            ],
            "outputs": [
                {
                    "name": "",
                    "type": "uint256[]",
                    "internalType": "uint256[]"
                }
            ],
            "stateMutability": "view"
        },
        {
            "type": "function",
            "name": "getBounty",
            "inputs": [
                {
                    "name": "bountyId",
                    "type": "uint256",
                    "internalType": "uint256"
                }
            ],
            "outputs": [
                {
                    "name": "",
                    "type": "tuple",
                    "internalType": "struct FlashBounty.Bounty",
                    "components": [
                        {
                            "name": "description",
                            "type": "string",
                            "internalType": "string"
                        },
                        {
                            "name": "poster",
                            "type": "address",
                            "internalType": "address"
                        },
                        {
                            "name": "worker",
                            "type": "address",
                            "internalType": "address"
                        },
                        {
                            "name": "stakeAmount",
                            "type": "uint256",
                            "internalType": "uint256"
                        },
                        {
                            "name": "tipAmount",
                            "type": "uint256",
                            "internalType": "uint256"
                        },
                        {
                            "name": "deadline",
                            "type": "uint256",
                            "internalType": "uint256"
                        },
                        {
                            "name": "status",
                            "type": "uint8",
                            "internalType": "enum FlashBounty.BountyStatus"
                        },
                        {
                            "name": "createdAt",
                            "type": "uint256",
                            "internalType": "uint256"
                        },
                        {
                            "name": "claimedAt",
                            "type": "uint256",
                            "internalType": "uint256"
                        },
                        {
                            "name": "submittedAt",
                            "type": "uint256",
                            "internalType": "uint256"
                        },
                        {
                            "name": "completedAt",
                            "type": "uint256",
                            "internalType": "uint256"
                        },
                        {
                            "name": "proofHash",
                            "type": "string",
                            "internalType": "string"
                        },
                        {
                            "name": "category",
                            "type": "string",
                            "internalType": "string"
                        },
                        {
                            "name": "fundsReleased",
                            "type": "bool",
                            "internalType": "bool"
                        }
                    ]
                }
            ],
            "stateMutability": "view"
        },
        {
            "type": "function",
            "name": "getOpenBountiesCount",
            "inputs": [],
            "outputs": [
                {
                    "name": "count",
                    "type": "uint256",
                    "internalType": "uint256"
                }
            ],
            "stateMutability": "view"
        },
        {
            "type": "function",
            "name": "getTotalValueLocked",
            "inputs": [],
            "outputs": [
                {
                    "name": "stakes",
                    "type": "uint256",
                    "internalType": "uint256"
                },
                {
                    "name": "tips",
                    "type": "uint256",
                    "internalType": "uint256"
                }
            ],
            "stateMutability": "view"
        },
        {
            "type": "function",
            "name": "getUserClaimedBounties",
            "inputs": [
                {
                    "name": "user",
                    "type": "address",
                    "internalType": "address"
                }
            ],
            "outputs": [
                {
                    "name": "",
                    "type": "uint256[]",
                    "internalType": "uint256[]"
                }
            ],
            "stateMutability": "view"
        },
        {
            "type": "function",
            "name": "getUserCompletedBounties",
            "inputs": [
                {
                    "name": "user",
                    "type": "address",
                    "internalType": "address"
                }
            ],
            "outputs": [
                {
                    "name": "",
                    "type": "uint256[]",
                    "internalType": "uint256[]"
                }
            ],
            "stateMutability": "view"
        },
        {
            "type": "function",
            "name": "getUserPostedBounties",
            "inputs": [
                {
                    "name": "user",
                    "type": "address",
                    "internalType": "address"
                }
            ],
            "outputs": [
                {
                    "name": "",
                    "type": "uint256[]",
                    "internalType": "uint256[]"
                }
            ],
            "stateMutability": "view"
        },
        {
            "type": "function",
            "name": "handleExpiredBounty",
            "inputs": [
                {
                    "name": "bountyId",
                    "type": "uint256",
                    "internalType": "uint256"
                }
            ],
            "outputs": [],
            "stateMutability": "nonpayable"
        },
        {
            "type": "function",
            "name": "postBounty",
            "inputs": [
                {
                    "name": "description",
                    "type": "string",
                    "internalType": "string"
                },
                {
                    "name": "category",
                    "type": "string",
                    "internalType": "string"
                },
                {
                    "name": "stakeAmount",
                    "type": "uint256",
                    "internalType": "uint256"
                },
                {
                    "name": "tipAmount",
                    "type": "uint256",
                    "internalType": "uint256"
                },
                {
                    "name": "durationHours",
                    "type": "uint256",
                    "internalType": "uint256"
                }
            ],
            "outputs": [
                {
                    "name": "bountyId",
                    "type": "uint256",
                    "internalType": "uint256"
                }
            ],
            "stateMutability": "nonpayable"
        },
        {
            "type": "function",
            "name": "submitBounty",
            "inputs": [
                {
                    "name": "bountyId",
                    "type": "uint256",
                    "internalType": "uint256"
                },
                {
                    "name": "proofHash",
                    "type": "string",
                    "internalType": "string"
                }
            ],
            "outputs": [],
            "stateMutability": "nonpayable"
        },
        {
            "type": "function",
            "name": "token",
            "inputs": [],
            "outputs": [
                {
                    "name": "",
                    "type": "address",
                    "internalType": "contract IERC20"
                }
            ],
            "stateMutability": "view"
        },
        {
            "type": "function",
            "name": "userClaimedBounties",
            "inputs": [
                {
                    "name": "",
                    "type": "address",
                    "internalType": "address"
                },
                {
                    "name": "",
                    "type": "uint256",
                    "internalType": "uint256"
                }
            ],
            "outputs": [
                {
                    "name": "",
                    "type": "uint256",
                    "internalType": "uint256"
                }
            ],
            "stateMutability": "view"
        },
        {
            "type": "function",
            "name": "userCompletedBounties",
            "inputs": [
                {
                    "name": "",
                    "type": "address",
                    "internalType": "address"
                },
                {
                    "name": "",
                    "type": "uint256",
                    "internalType": "uint256"
                }
            ],
            "outputs": [
                {
                    "name": "",
                    "type": "uint256",
                    "internalType": "uint256"
                }
            ],
            "stateMutability": "view"
        },
        {
            "type": "function",
            "name": "userPostedBounties",
            "inputs": [
                {
                    "name": "",
                    "type": "address",
                    "internalType": "address"
                },
                {
                    "name": "",
                    "type": "uint256",
                    "internalType": "uint256"
                }
            ],
            "outputs": [
                {
                    "name": "",
                    "type": "uint256",
                    "internalType": "uint256"
                }
            ],
            "stateMutability": "view"
        },
        {
            "type": "event",
            "name": "BountyActivity",
            "inputs": [
                {
                    "name": "bountyId",
                    "type": "uint256",
                    "indexed": true,
                    "internalType": "uint256"
                },
                {
                    "name": "user",
                    "type": "address",
                    "indexed": true,
                    "internalType": "address"
                },
                {
                    "name": "action",
                    "type": "string",
                    "indexed": false,
                    "internalType": "string"
                },
                {
                    "name": "timestamp",
                    "type": "uint256",
                    "indexed": false,
                    "internalType": "uint256"
                }
            ],
            "anonymous": false
        },
        {
            "type": "event",
            "name": "BountyCancelled",
            "inputs": [
                {
                    "name": "bountyId",
                    "type": "uint256",
                    "indexed": true,
                    "internalType": "uint256"
                },
                {
                    "name": "poster",
                    "type": "address",
                    "indexed": true,
                    "internalType": "address"
                },
                {
                    "name": "tipRefunded",
                    "type": "uint256",
                    "indexed": false,
                    "internalType": "uint256"
                },
                {
                    "name": "reason",
                    "type": "string",
                    "indexed": false,
                    "internalType": "string"
                },
                {
                    "name": "timestamp",
                    "type": "uint256",
                    "indexed": false,
                    "internalType": "uint256"
                }
            ],
            "anonymous": false
        },
        {
            "type": "event",
            "name": "BountyClaimed",
            "inputs": [
                {
                    "name": "bountyId",
                    "type": "uint256",
                    "indexed": true,
                    "internalType": "uint256"
                },
                {
                    "name": "worker",
                    "type": "address",
                    "indexed": true,
                    "internalType": "address"
                },
                {
                    "name": "stakeAmount",
                    "type": "uint256",
                    "indexed": false,
                    "internalType": "uint256"
                },
                {
                    "name": "timestamp",
                    "type": "uint256",
                    "indexed": false,
                    "internalType": "uint256"
                }
            ],
            "anonymous": false
        },
        {
            "type": "event",
            "name": "BountyCompleted",
            "inputs": [
                {
                    "name": "bountyId",
                    "type": "uint256",
                    "indexed": true,
                    "internalType": "uint256"
                },
                {
                    "name": "poster",
                    "type": "address",
                    "indexed": true,
                    "internalType": "address"
                },
                {
                    "name": "worker",
                    "type": "address",
                    "indexed": true,
                    "internalType": "address"
                },
                {
                    "name": "stakeRefund",
                    "type": "uint256",
                    "indexed": false,
                    "internalType": "uint256"
                },
                {
                    "name": "tipPaid",
                    "type": "uint256",
                    "indexed": false,
                    "internalType": "uint256"
                },
                {
                    "name": "timestamp",
                    "type": "uint256",
                    "indexed": false,
                    "internalType": "uint256"
                }
            ],
            "anonymous": false
        },
        {
            "type": "event",
            "name": "BountyDisputed",
            "inputs": [
                {
                    "name": "bountyId",
                    "type": "uint256",
                    "indexed": true,
                    "internalType": "uint256"
                },
                {
                    "name": "disputer",
                    "type": "address",
                    "indexed": true,
                    "internalType": "address"
                },
                {
                    "name": "reason",
                    "type": "string",
                    "indexed": false,
                    "internalType": "string"
                },
                {
                    "name": "timestamp",
                    "type": "uint256",
                    "indexed": false,
                    "internalType": "uint256"
                }
            ],
            "anonymous": false
        },
        {
            "type": "event",
            "name": "BountyPosted",
            "inputs": [
                {
                    "name": "bountyId",
                    "type": "uint256",
                    "indexed": true,
                    "internalType": "uint256"
                },
                {
                    "name": "poster",
                    "type": "address",
                    "indexed": true,
                    "internalType": "address"
                },
                {
                    "name": "description",
                    "type": "string",
                    "indexed": false,
                    "internalType": "string"
                },
                {
                    "name": "category",
                    "type": "string",
                    "indexed": false,
                    "internalType": "string"
                },
                {
                    "name": "stakeAmount",
                    "type": "uint256",
                    "indexed": false,
                    "internalType": "uint256"
                },
                {
                    "name": "tipAmount",
                    "type": "uint256",
                    "indexed": false,
                    "internalType": "uint256"
                },
                {
                    "name": "deadline",
                    "type": "uint256",
                    "indexed": false,
                    "internalType": "uint256"
                },
                {
                    "name": "timestamp",
                    "type": "uint256",
                    "indexed": false,
                    "internalType": "uint256"
                }
            ],
            "anonymous": false
        },
        {
            "type": "event",
            "name": "BountySubmitted",
            "inputs": [
                {
                    "name": "bountyId",
                    "type": "uint256",
                    "indexed": true,
                    "internalType": "uint256"
                },
                {
                    "name": "worker",
                    "type": "address",
                    "indexed": true,
                    "internalType": "address"
                },
                {
                    "name": "proofHash",
                    "type": "string",
                    "indexed": false,
                    "internalType": "string"
                },
                {
                    "name": "timestamp",
                    "type": "uint256",
                    "indexed": false,
                    "internalType": "uint256"
                }
            ],
            "anonymous": false
        },
        {
            "type": "event",
            "name": "FundsReleased",
            "inputs": [
                {
                    "name": "bountyId",
                    "type": "uint256",
                    "indexed": true,
                    "internalType": "uint256"
                },
                {
                    "name": "recipient",
                    "type": "address",
                    "indexed": true,
                    "internalType": "address"
                },
                {
                    "name": "stakeAmount",
                    "type": "uint256",
                    "indexed": false,
                    "internalType": "uint256"
                },
                {
                    "name": "tipAmount",
                    "type": "uint256",
                    "indexed": false,
                    "internalType": "uint256"
                },
                {
                    "name": "releaseType",
                    "type": "string",
                    "indexed": false,
                    "internalType": "string"
                },
                {
                    "name": "timestamp",
                    "type": "uint256",
                    "indexed": false,
                    "internalType": "uint256"
                }
            ],
            "anonymous": false
        },
        {
            "type": "error",
            "name": "ReentrancyGuardReentrantCall",
            "inputs": []
        },
        {
            "type": "error",
            "name": "SafeERC20FailedOperation",
            "inputs": [
                {
                    "name": "token",
                    "type": "address",
                    "internalType": "address"
                }
            ]
        }
    ],
    "bytecode": {
        "object": "0x60a0346100ad57601f6129c238819003918201601f19168301916001600160401b038311848410176100b1578084926020946040528339810103126100ad57516001600160a01b03811681036100ad5760015f556080526040516128fc90816100c6823960805181818161014c0152818161072d015281816111ba015281816114f20152818161178e01528181611a7901528181611ea80152818161200b015281816120ec01526121a90152f35b5f80fd5b634e487b7160e01b5f52604160045260245ffdfe60806040526004361015610011575f80fd5b5f3560e01c806303fa063714611f65578063139005ab14611dcc578063211f54d914611d8357806328aea1bb14611cf3578063332710d414611bce57806344021ad714611a0957806345365b411461198c57806361f1f0eb146119105780636c68943a146118e057806373d86aae1461186a57806376d7116114611622578063859c5b6514611447578063a054c7c8146113a5578063a0d5978714611388578063a635e7e814611312578063a90d580d146110e0578063b26025aa14611011578063b2b5df6814610db5578063bf0689d3146106a6578063cac3bb8414610620578063d189945c146105c9578063d8219b1b14610540578063dc2f874414610427578063e2b8d560146103cf578063ee8c4bbf1461017f5763fc0c546a14610137575f80fd5b3461017b575f36600319011261017b576040517f00000000000000000000000000000000000000000000000000000000000000006001600160a01b03168152602090f35b5f80fd5b3461017b57602036600319011261017b575f6101a06040516101a081612308565b606081528260208201528260408201528260608201528260808201528260a08201528260c08201528260e08201528261010082015282610120820152826101408201526060610160820152606061018082015201526004355f52600260205260405f206040519061021082612308565b61021981612416565b825260018101546001600160a01b03908116602084015260028201541660408301526003810154606083015260048101546080830152600581015460a083015260068082015460ff16908110156103bb5760ff91600d9160c0850152600781015460e085015260088101546101008501526009810154610120850152600a8101546101408501526102ac600b8201612416565b6101608501526102be600c8201612416565b61018085015201541615156101a08201526040518091602082526101a06103ac6102f683516101c060208701526101e08601906124b8565b60018060a01b03602085015116604086015260018060a01b03604085015116606086015260608401516080860152608084015160a086015260a084015160c086015261034a60c085015160e08701906124dd565b60e084015161010086015261010084015161012086015261012084015161014086015261014084015161016086015261039761016085015191601f199283888303016101808901526124b8565b906101808501519086830301848701526124b8565b91015115156101c08301520390f35b634e487b7160e01b5f52602160045260245ffd5b3461017b57604036600319011261017b576103e861225f565b6001600160a01b03165f9081526003602052604090208054602435919082101561017b576020916104189161228b565b90549060031b1c604051908152f35b3461017b57602036600319011261017b576004355f52600260205260405f2061044f81612416565b600160a01b600190038060018401541690600284015416926003810154916004820154906005830154600684015460ff166007850154600886015490600987015492600a88015494600b89016104a490612416565b976104b1600c8b01612416565b99600d015460ff169a6040519d8e809e6101c080835282016104d2916124b8565b9a60208201526040015260608d015260808c015260a08b015260c08a016104f8916124dd565b60e0890152610100880152610120870152610140860152848103610160860152610521916124b8565b838103610180850152610533916124b8565b9015156101a08301520390f35b3461017b575f36600319011261017b57600180545f90815b81811061056a57602083604051908152f35b805f52600290602082815260069260ff8460405f20015416938410156103bb5786931591826105b1575b50506105a1575b01610558565b926105ab9061260d565b9261059b565b909150825f5252600560405f20015442108680610594565b3461017b57604036600319011261017b576105e261225f565b6001600160a01b03165f9081526005602052604090208054602435919082101561017b576020916106129161228b565b90546040519160031b1c8152f35b3461017b5760208060031936011261017b576001600160a01b0361064261225f565b165f52600360205260405f20906040519081602084549182815201935f5260205f20915f905b82821061068f5761068b8561067f81890382612324565b604051918291826122cd565b0390f35b835486529485019460019384019390910190610668565b3461017b5760a036600319011261017b576004356001600160401b03811161017b576106d69036906004016122a0565b6024356001600160401b03811161017b576106f59036906004016122a0565b6106fd61277d565b8215610d795760443515610d3b5760643515610cff57608435151580610cf2575b15610cb95761075160643530337f000000000000000000000000000000000000000000000000000000000000000061281c565b6001549261075e8461260d565b600155608435610e106084350204610e1014608435151715610ca55761078a610e10608435024261252f565b926040519261079884612308565b6107a3368489612345565b84523360208501525f6040850152604435606085015260643560808501528460a08501525f60c08501524260e08501525f6101008501525f6101208501525f6101408501526040518060208101106001600160401b03602083011117610bb057602081016040525f815261016085015261081e368284612345565b6101808501525f6101a0850152855f52600260205260405f209684518051906001600160401b038211610bb05761085f826108598c546123de565b8c61272e565b602090601f8311600114610c3d5761088e92915f9183610bc4575b50508160011b915f199060031b1c19161790565b88555b6001880160018060a01b039081602088015116906bffffffffffffffffffffffff60a01b918282541617905560028a019160408801511690825416179055606085015160038901556080850151600489015560a085015160058901556006880160c086015160068110156103bb5760ff8019835416911617905560e0850151600789015561010085015160088901556101208501516009890155610140850151600a8901556101608501518051906001600160401b038211610bb0576109678261095e600b8d01546123de565b600b8d0161272e565b602090601f8311600114610bcf5761099592915f9183610bc45750508160011b915f199060031b1c19161790565b600b8901555b610180850151948551986001600160401b038a11610bb0578989976109d260209c6109c9600c8601546123de565b600c860161272e565b8b90601f8311600114610b0957600d610a8d94610a32857f6e502df9a123cdc0a12ac8c244d5c2e5292a50975460d027dbd053262588886f9c9b9996610a9a9b99966101a0965f92610afe5750508160011b915f199060031b1c19161790565b600c8201555b01910151151560ff80198354169116179055335f5260038b52610a5e8860405f2061253c565b610a7b88604051858782378d81878101600681520301902061253c565b6040519560c0875260c08701916126d5565b918483038a8601526126d5565b936044356040830152606435606083015260808201524260a08201528033940390a36040516040815260066040820152651c1bdcdd195960d21b60608201524283820152815f805160206128a783398151915260803393a360015f55604051908152f35b015190505f8061087a565b600c8493929a999897969594015f528c5f20905f5b601f1984168110610b965750610a9a979695936001846101a0947f6e502df9a123cdc0a12ac8c244d5c2e5292a50975460d027dbd053262588886f9d9e600d95610a8d9a98601f19811610610b7e575b505050811b01600c820155610a38565b01515f1960f88460031b161c191690555f8080610b6e565b818c015183559a8e019a8d9a506001909201918e01610b1e565b634e487b7160e01b5f52604160045260245ffd5b015190508b8061087a565b9190600b8b015f5260205f20905f935b601f1984168510610c22576001945083601f19811610610c0a575b505050811b01600b89015561099b565b01515f1960f88460031b161c191690558a8080610bfa565b81810151835560209485019460019093019290910190610bdf565b91908a5f5260205f20905f935b601f1984168510610c8a576001945083601f19811610610c72575b505050811b018855610891565b01515f1960f88460031b161c191690558a8080610c65565b81810151835560209485019460019093019290910190610c4a565b634e487b7160e01b5f52601160045260245ffd5b60405162461bcd60e51b81526020600482015260116024820152704475726174696f6e2031682d317765656b60781b6044820152606490fd5b5060a8608435111561071e565b60405162461bcd60e51b8152602060048201526014602482015273546970206d75737420626520706f73697469766560601b6044820152606490fd5b60405162461bcd60e51b81526020600482015260166024820152755374616b65206d75737420626520706f73697469766560501b6044820152606490fd5b60405162461bcd60e51b815260206004820152601460248201527311195cd8dc9a5c1d1a5bdb881c995c5d5a5c995960621b6044820152606490fd5b3461017b57610dc3366123ab565b825f939293526020926002845260405f2090610dec60018060a01b0360028401541633146126f5565b6006828101805460ff811694928510156103bb576001809503610fd757610e1860058401544210612632565b8515610fa15760ff19166002179055426009820155600b016001600160401b038411610bb057838593610e5582610e4f85546123de565b8561272e565b5f90601f8311600114610f10575091610ea9827f210a6f6c43a61313a076c6fb865d77cb000f09abd7f3141b5d4f7859904963a49593610ebe955f91610f05575b508160011b915f199060031b1c19161790565b90555b604051946040865260408601916126d5565b9242868201528033940390a3604051916040835260096040840152681cdd589b5a5d1d195960ba1b606084015242908301525f805160206128a783398151915260803393a3005b90508401358b610e96565b91601f198116845f52895f20935f905b8b838310610f8357505050917f210a6f6c43a61313a076c6fb865d77cb000f09abd7f3141b5d4f7859904963a4959391610ebe959310610f6a575b5050600186811b019055610eac565b8301355f19600389901b60f8161c191690558880610f5b565b8886013587558b995095810195948501948a94509190910190610f20565b60405162461bcd60e51b815260048101899052600e60248201526d141c9bdbd9881c995c5d5a5c995960921b6044820152606490fd5b60405162461bcd60e51b8152600481018990526012602482015271109bdd5b9d1e481b9bdd0818db185a5b595960721b6044820152606490fd5b3461017b575f36600319011261017b57600180545f908190815b818110611042576040848482519182526020820152f35b8085915f5260028060205260405f2060ff9182600d830154161561106a575b5050500161102b565b9091935060069384830154169384101590816103bb578885149081156110d3575b506110bd575b6103bb5760058793036110a6575b8080611061565b9360046110b6929501549061252f565b928661109f565b956110cd9060038301549061252f565b95611091565b9150505f9084148961108b565b3461017b5760208060031936011261017b576004356110fd61277d565b805f526002825260405f2060018060a01b036111208160028401541633146126f5565b60068201805460ff811660068110156103bb57600261113f91146125ae565b600d84019182549061115460ff8316156124ea565b60098601546202a3008101809111610ca55742106112d5579060019291600360ff1980941617905542600a87015516179055335f526005845261119a8360405f2061253c565b600382019060018254936111de6111b7600483019687549061252f565b337f000000000000000000000000000000000000000000000000000000000000000061279e565b015416905491549060405190847f56355901118389903ab0610d1aed268483b0574c99be665949a679352f271e5733938061122c42888a846040919493926060820195825260208201520152565b0390a46040519182528382015260806040820152815f8051602061288783398151915261127860808401604090600e81526d185d5d1bcb58dbdb5c1b195d195960921b60208201520190565b924260608201528033940390a35f805160206128a7833981519152604051604081526112c360408201604090600e81526d185d5d1bcb58dbdb5c1b195d195960921b60208201520190565b9342908201528033940390a360015f55005b60405162461bcd60e51b815260048101899052601560248201527423b930b1b2903832b934b7b2103737ba1037bb32b960591b6044820152606490fd5b3461017b5760208060031936011261017b576001600160a01b0361133461225f565b165f52600560205260405f20906040519081602084549182815201935f5260205f20915f905b8282106113715761068b8561067f81890382612324565b83548652948501946001938401939091019061135a565b3461017b575f36600319011261017b576020600154604051908152f35b3461017b57604036600319011261017b576113be612275565b6004355f52600260205260405f209060018060a01b0380600284015416911614908161142b575b8161141b575b816113fe575b6020826040519015158152f35b6009915001546202a3008101809111610ca55742101560206113f1565b600d81015460ff161591506113eb565b905060ff60068201541660068110156103bb57600214906113e5565b3461017b57611455366123ab565b61145d61277d565b825f52600260205260405f2061148060018060a01b036001830154163314612575565b600681019081549160ff831660068110156103bb576115dd576004826115309260018996600d7fbf7f1a787fde833e978d6cfa967b0316eb2aa90ff171d0d1a7b7f2e30b638af99701928354906114da60ff8316156124ea565b600560ff1980941617905516179055016115168154337f000000000000000000000000000000000000000000000000000000000000000061279e565b5494604051948686526060602087015260608601916126d5565b924260408201528033940390a3604051905f8252602082015260806040820152815f8051602061288783398151915261158360808401604090600981526818d85b98d95b1b195960ba1b60208201520190565b924260608201528033940390a360405190604082525f805160206128a78339815191526115ca60408401604090600981526818d85b98d95b1b195960ba1b60208201520190565b924260208201528033940390a360015f55005b60405162461bcd60e51b815260206004820152601c60248201527f43616e6e6f742063616e63656c20636c61696d656420626f756e7479000000006044820152606490fd5b3461017b57602036600319011261017b576004356001600160401b0380821161017b573660238301121561017b5781600401351161017b57600590366024826004013560051b8301011161017b575f5b8160040135811061167f57005b61169b33611695838560040135602487016126c5565b3561266f565b6116a8575b600101611672565b6116ba818360040135602485016126c5565b35906116c461277d565b815f52600260205260405f20916116e860018060a01b036001850154163314612575565b600680840154938160ff861610156103bb575f8051602061288783398151915283918661171c600260ff60019a16146125ae565b87600d830191825461173160ff8216156124ea565b6003978860ff19809416179086015542600a860155161790556002810193878060a01b038554165f528960205261176b8460405f2061253c565b8101936117b26117836004875494019384549061252f565b898060a01b038354167f000000000000000000000000000000000000000000000000000000000000000061279e565b878060a01b039054169354905484604051857f56355901118389903ab0610d1aed268483b0574c99be665949a679352f271e5733928061180542888a846040919493926060820195825260208201520152565b0390a46118286040519283926080918452602084015280604084015282016125f1565b4260608301520390a360405190604082525f805160206128a7833981519152611853604084016125f1565b924260208201528033940390a3815f5590506116a0565b3461017b5760208060031936011261017b576001600160a01b0361188c61225f565b165f52600460205260405f20906040519081602084549182815201935f5260205f20915f905b8282106118c95761068b8561067f81890382612324565b8354865294850194600193840193909101906118b2565b3461017b57604036600319011261017b5760206119066118fe612275565b60043561266f565b6040519015158152f35b3461017b57604036600319011261017b576004356001600160401b03811161017b573660238201121561017b57611951903690602481600401359101612345565b61196d602060243592816040519382858094519384920161238a565b81016006815203019020805482101561017b576020916106129161228b565b3461017b57604036600319011261017b576119a5612275565b6004355f52600260205260405f209060018060a01b0380600184015416911614806119ef575b602091816119df575b506040519015158152f35b60ff9150600d01541615826119d4565b5060ff6006820154169060068210156103bb5790156119cb565b3461017b5760208060031936011261017b57600435611a2661277d565b805f526002825260405f20600681019060ff82541660068110156103bb57611b9257611a5760058201544210612632565b60018101546001600160a01b03163314611b4d576003810191611a9d835430337f000000000000000000000000000000000000000000000000000000000000000061281c565b600160ff1982541617905560028101336bffffffffffffffffffffffff60a01b825416179055600842910155335f5260048352611add8260405f2061253c565b546040519081524283820152817f2eefa727cced3362efe12827696bbd9df4926abce3c569ddaf6b9634ae1af14760403393a36040519160408352600760408401526618db185a5b595960ca1b606084015242908301525f805160206128a783398151915260803393a360015f55005b60405162461bcd60e51b815260048101859052601760248201527f43616e6e6f7420636c61696d206f776e20626f756e74790000000000000000006044820152606490fd5b60405162461bcd60e51b8152600481018590526014602482015273426f756e7479206e6f7420617661696c61626c6560601b6044820152606490fd5b3461017b5760208060031936011261017b57600660043581811015928361017b575f925f9260019580600154955b868110611cb4575050611c0e8661261b565b95611c1c6040519788612324565b808752611c2b601f199161261b565b013660208801375f925f5b868110611c4b576040518061068b8a826122cd565b8083915f526002875260ff8360405f20015416916103bb57828210156103bb57848a9214611c7a575b01611c36565b9490508751811015611ca057611c9a8186888c9460051b8c01015261260d565b94611c74565b634e487b7160e01b5f52603260045260245ffd5b805f526002865260ff8560405f20015416916103bb57848210156103bb5783899214611ce3575b018190611bfc565b96611ced9061260d565b96611cdb565b3461017b5760208060031936011261017b576004356001600160401b03811161017b57611d2660209136906004016122a0565b919082604051938492833781016006815203019020906040519081602084549182815201935f5260205f20915f905b828210611d6c5761068b8561067f81890382612324565b835486529485019460019384019390910190611d55565b3461017b57604036600319011261017b57611d9c61225f565b6001600160a01b03165f9081526004602052604090208054602435919082101561017b576020916106129161228b565b3461017b57602036600319011261017b57600435611de861277d565b805f52600260205260405f2060018060a01b0390611e0d826001830154163314612575565b600681019081549060ff82169260068410156103bb5760015f8051602061288783398151915293611e4160028997146125ae565b600d840192835490611e5660ff8316156124ea565b600360ff1980941617905542600a860155161790556002810193808554165f526005602052611e888460405f2061253c565b6003820194611ecc611ea26004885495019485549061252f565b838354167f000000000000000000000000000000000000000000000000000000000000000061279e565b54169354905484604051857f56355901118389903ab0610d1aed268483b0574c99be665949a679352f271e57339280611f1842888a846040919493926060820195825260208201520152565b0390a460405191825260208201526080604082015280611f3a608082016125f1565b4260608301520390a360405190604082525f805160206128a78339815191526115ca604084016125f1565b3461017b5760208060031936011261017b57600435611f8261277d565b805f526002825260405f20600581015442111561222c57600d8101805490611fad60ff8316156124ea565b600160ff19809316179055600682019081549060ff821660068110156103bb57806120ab575060059150825416179055815f8051602061288783398151915260c06001840160018060a01b039061202f6004838354169701968754907f000000000000000000000000000000000000000000000000000000000000000061279e565b54169354604051905f825287820152608060408201526011608082015270195e1c1a5c99590b5d5b98db185a5b5959607a1b60a0820152426060820152a35b60405191604083526007604084015266195e1c1a5c995960ca1b606084015242908301525f805160206128a783398151915260803393a360015f55005b60018103612151575060059150825416179055815f8051602061288783398151915260c06001840160018060a01b03906121106004838354169701968754907f000000000000000000000000000000000000000000000000000000000000000061279e565b54169354604051905f82528782015260806040820152600f60808201526e195e1c1a5c99590b58db185a5b5959608a1b60a0820152426060820152a361206e565b600214612162575b5050505061206e565b60039116179055815f8051602061288783398151915260c060038401938454906002612194600483019384549061252f565b910180546001600160a01b03926121cd9184167f000000000000000000000000000000000000000000000000000000000000000061279e565b818154165f52600589526121e48660405f2061253c565b54169454905460405191825287820152608060408201526011608082015270195e1c1a5c99590b5cdd589b5a5d1d1959607a1b60a0820152426060820152a382808080612159565b60405162461bcd60e51b815260048101849052600b60248201526a139bdd08195e1c1a5c995960aa1b6044820152606490fd5b600435906001600160a01b038216820361017b57565b602435906001600160a01b038216820361017b57565b8054821015611ca0575f5260205f2001905f90565b9181601f8401121561017b578235916001600160401b03831161017b576020838186019501011161017b57565b60209060206040818301928281528551809452019301915f5b8281106122f4575050505090565b8351855293810193928101926001016122e6565b6101c081019081106001600160401b03821117610bb057604052565b90601f801991011681019081106001600160401b03821117610bb057604052565b9291926001600160401b038211610bb0576040519161236e601f8201601f191660200184612324565b82948184528183011161017b578281602093845f960137010152565b5f5b83811061239b5750505f910152565b818101518382015260200161238c565b90604060031983011261017b5760043591602435906001600160401b03821161017b576123da916004016122a0565b9091565b90600182811c9216801561240c575b60208310146123f857565b634e487b7160e01b5f52602260045260245ffd5b91607f16916123ed565b9060405191825f8254612428816123de565b908184526020946001916001811690815f146124965750600114612458575b50505061245692500383612324565b565b5f90815285812095935091905b81831061247e57505061245693508201015f8080612447565b85548884018501529485019487945091830191612465565b9250505061245694925060ff191682840152151560051b8201015f8080612447565b906020916124d18151809281855285808601910161238a565b601f01601f1916010190565b9060068210156103bb5752565b156124f157565b60405162461bcd60e51b8152602060048201526016602482015275119d5b991cc8185b1c9958591e481c995b19585cd95960521b6044820152606490fd5b91908201809211610ca557565b805468010000000000000000811015610bb05761255e9160018201815561228b565b819291549060031b91821b915f19901b1916179055565b1561257c57565b60405162461bcd60e51b815260206004820152600a6024820152692737ba103837b9ba32b960b11b6044820152606490fd5b156125b557565b60405162461bcd60e51b8152602060048201526014602482015273109bdd5b9d1e481b9bdd081cdd589b5a5d1d195960621b6044820152606490fd5b600981526818dbdb5c1b195d195960ba1b602082015260400190565b5f198114610ca55760010190565b6001600160401b038111610bb05760051b60200190565b1561263957565b60405162461bcd60e51b815260206004820152600e60248201526d109bdd5b9d1e48195e1c1a5c995960921b6044820152606490fd5b5f52600260205260405f209060018060a01b038060018401541691161490816126a9575b8161269c575090565b60ff9150600d0154161590565b905060ff60068201541660068110156103bb5760021490612693565b9190811015611ca05760051b0190565b908060209392818452848401375f828201840152601f01601f1916010190565b156126fc57565b60405162461bcd60e51b815260206004820152600a6024820152692737ba103bb7b935b2b960b11b6044820152606490fd5b601f821161273b57505050565b5f5260205f20906020601f840160051c83019310612773575b601f0160051c01905b818110612768575050565b5f815560010161275d565b9091508190612754565b60025f541461278c5760025f55565b604051633ee5aeb560e01b8152600490fd5b60405163a9059cbb60e01b5f9081526001600160a01b039384166004526024949094529260209060448180855af160015f51148116156127fd575b83604052156127e757505050565b635274afe760e01b835216600482015260249150fd5b600181151661281357813b15153d1516166127d9565b833d5f823e3d90fd5b6040516323b872dd60e01b5f9081526001600160a01b03938416600452938316602452604494909452909160209060648180855af160015f5114811615612870575b836040525f606052156127e757505050565b600181151661281357813b15153d15161661285e56fea47c8c39c4e94321fad322f103657729ed0634c0ff9a47d537ba3963e92407b3e5c4685a066af67a451daacd9b355bbbc45c1bf423b81592c3e289bcdf55a47ba2646970667358221220e4ee1aff7cd6bcac2c237efd86a08dbcd8a2eabb3fd7d8badd4a610f14b381b364736f6c63430008180033",
        "linkReferences": {}
    },
    "methodIdentifiers": {
        "autoComplete(uint256)": "a90d580d",
        "batchCompleteBounties(uint256[])": "76d71161",
        "bounties(uint256)": "dc2f8744",
        "bountyCounter()": "a0d59787",
        "canAutoComplete(uint256,address)": "a054c7c8",
        "canCancel(uint256,address)": "45365b41",
        "canComplete(uint256,address)": "6c68943a",
        "cancelBounty(uint256,string)": "859c5b65",
        "categorizedBounties(string,uint256)": "61f1f0eb",
        "claimBounty(uint256)": "44021ad7",
        "completeBounty(uint256)": "139005ab",
        "getBountiesByCategory(string)": "28aea1bb",
        "getBountiesByStatus(uint8)": "332710d4",
        "getBounty(uint256)": "ee8c4bbf",
        "getOpenBountiesCount()": "d8219b1b",
        "getTotalValueLocked()": "b26025aa",
        "getUserClaimedBounties(address)": "73d86aae",
        "getUserCompletedBounties(address)": "a635e7e8",
        "getUserPostedBounties(address)": "cac3bb84",
        "handleExpiredBounty(uint256)": "03fa0637",
        "postBounty(string,string,uint256,uint256,uint256)": "bf0689d3",
        "submitBounty(uint256,string)": "b2b5df68",
        "token()": "fc0c546a",
        "userClaimedBounties(address,uint256)": "211f54d9",
        "userCompletedBounties(address,uint256)": "d189945c",
        "userPostedBounties(address,uint256)": "e2b8d560"
    },
    "id": 25
}