{
  "abi": [
    {
      "type": "constructor",
      "inputs": [
        {
          "name": "_rewardsContract",
          "type": "address",
          "internalType": "address"
        }
      ],
      "stateMutability": "nonpayable"
    },
    {
      "type": "receive",
      "stateMutability": "payable"
    },
    {
      "type": "function",
      "name": "MAX_GROUP_MEMBERS",
      "inputs": [],
      "outputs": [
        {
          "name": "",
          "type": "uint256",
          "internalType": "uint256"
        }
      ],
      "stateMutability": "view"
    },
    {
      "type": "function",
      "name": "MIN_EXPENSE_AMOUNT",
      "inputs": [],
      "outputs": [
        {
          "name": "",
          "type": "uint256",
          "internalType": "uint256"
        }
      ],
      "stateMutability": "view"
    },
    {
      "type": "function",
      "name": "PLATFORM_FEE_BPS",
      "inputs": [],
      "outputs": [
        {
          "name": "",
          "type": "uint256",
          "internalType": "uint256"
        }
      ],
      "stateMutability": "view"
    },
    {
      "type": "function",
      "name": "addSupportedToken",
      "inputs": [
        {
          "name": "token",
          "type": "address",
          "internalType": "address"
        }
      ],
      "outputs": [],
      "stateMutability": "nonpayable"
    },
    {
      "type": "function",
      "name": "aggregateValues",
      "inputs": [
        {
          "name": "values",
          "type": "uint256[]",
          "internalType": "uint256[]"
        }
      ],
      "outputs": [
        {
          "name": "",
          "type": "uint256",
          "internalType": "uint256"
        }
      ],
      "stateMutability": "view"
    },
    {
      "type": "function",
      "name": "convertCurrency",
      "inputs": [
        {
          "name": "amount",
          "type": "uint256",
          "internalType": "uint256"
        },
        {
          "name": "fromSymbol",
          "type": "string",
          "internalType": "string"
        },
        {
          "name": "toSymbol",
          "type": "string",
          "internalType": "string"
        }
      ],
      "outputs": [
        {
          "name": "",
          "type": "uint256",
          "internalType": "uint256"
        }
      ],
      "stateMutability": "view"
    },
    {
      "type": "function",
      "name": "createExpenseGroup",
      "inputs": [
        {
          "name": "params",
          "type": "tuple",
          "internalType": "struct FlashSplit.CreateParams",
          "components": [
            {
              "name": "groupName",
              "type": "string",
              "internalType": "string"
            },
            {
              "name": "members",
              "type": "address[]",
              "internalType": "address[]"
            },
            {
              "name": "currency",
              "type": "address",
              "internalType": "address"
            },
            {
              "name": "totalAmount",
              "type": "uint256",
              "internalType": "uint256"
            },
            {
              "name": "category",
              "type": "uint8",
              "internalType": "enum FlashSplit.ExpenseCategory"
            },
            {
              "name": "splitType",
              "type": "uint8",
              "internalType": "enum FlashSplit.SplitType"
            },
            {
              "name": "customSplits",
              "type": "uint256[]",
              "internalType": "uint256[]"
            },
            {
              "name": "isRecurring",
              "type": "bool",
              "internalType": "bool"
            },
            {
              "name": "recurringInterval",
              "type": "uint256",
              "internalType": "uint256"
            }
          ]
        }
      ],
      "outputs": [],
      "stateMutability": "payable"
    },
    {
      "type": "function",
      "name": "extractTimestampsAndAssertAllAreEqual",
      "inputs": [],
      "outputs": [
        {
          "name": "extractedTimestamp",
          "type": "uint256",
          "internalType": "uint256"
        }
      ],
      "stateMutability": "pure"
    },
    {
      "type": "function",
      "name": "getAuthorisedSignerIndex",
      "inputs": [
        {
          "name": "signerAddress",
          "type": "address",
          "internalType": "address"
        }
      ],
      "outputs": [
        {
          "name": "",
          "type": "uint8",
          "internalType": "uint8"
        }
      ],
      "stateMutability": "view"
    },
    {
      "type": "function",
      "name": "getCustomSplit",
      "inputs": [
        {
          "name": "groupId",
          "type": "uint256",
          "internalType": "uint256"
        },
        {
          "name": "user",
          "type": "address",
          "internalType": "address"
        }
      ],
      "outputs": [
        {
          "name": "",
          "type": "uint256",
          "internalType": "uint256"
        }
      ],
      "stateMutability": "view"
    },
    {
      "type": "function",
      "name": "getDataServiceId",
      "inputs": [],
      "outputs": [
        {
          "name": "",
          "type": "string",
          "internalType": "string"
        }
      ],
      "stateMutability": "view"
    },
    {
      "type": "function",
      "name": "getGroupBasic",
      "inputs": [
        {
          "name": "groupId",
          "type": "uint256",
          "internalType": "uint256"
        }
      ],
      "outputs": [
        {
          "name": "",
          "type": "tuple",
          "internalType": "struct FlashSplit.GroupBasic",
          "components": [
            {
              "name": "groupId",
              "type": "uint256",
              "internalType": "uint256"
            },
            {
              "name": "creator",
              "type": "address",
              "internalType": "address"
            },
            {
              "name": "groupName",
              "type": "string",
              "internalType": "string"
            },
            {
              "name": "currency",
              "type": "address",
              "internalType": "address"
            },
            {
              "name": "totalAmount",
              "type": "uint256",
              "internalType": "uint256"
            },
            {
              "name": "amountPerMember",
              "type": "uint256",
              "internalType": "uint256"
            },
            {
              "name": "settledCount",
              "type": "uint256",
              "internalType": "uint256"
            },
            {
              "name": "createdAt",
              "type": "uint256",
              "internalType": "uint256"
            },
            {
              "name": "settledAt",
              "type": "uint256",
              "internalType": "uint256"
            },
            {
              "name": "isCompleted",
              "type": "bool",
              "internalType": "bool"
            }
          ]
        }
      ],
      "stateMutability": "view"
    },
    {
      "type": "function",
      "name": "getGroupMemberCount",
      "inputs": [
        {
          "name": "groupId",
          "type": "uint256",
          "internalType": "uint256"
        }
      ],
      "outputs": [
        {
          "name": "",
          "type": "uint256",
          "internalType": "uint256"
        }
      ],
      "stateMutability": "view"
    },
    {
      "type": "function",
      "name": "getGroupMembers",
      "inputs": [
        {
          "name": "groupId",
          "type": "uint256",
          "internalType": "uint256"
        }
      ],
      "outputs": [
        {
          "name": "",
          "type": "address[]",
          "internalType": "address[]"
        }
      ],
      "stateMutability": "view"
    },
    {
      "type": "function",
      "name": "getGroupSettings",
      "inputs": [
        {
          "name": "groupId",
          "type": "uint256",
          "internalType": "uint256"
        }
      ],
      "outputs": [
        {
          "name": "",
          "type": "tuple",
          "internalType": "struct FlashSplit.GroupSettings",
          "components": [
            {
              "name": "category",
              "type": "uint8",
              "internalType": "enum FlashSplit.ExpenseCategory"
            },
            {
              "name": "splitType",
              "type": "uint8",
              "internalType": "enum FlashSplit.SplitType"
            },
            {
              "name": "isRecurring",
              "type": "bool",
              "internalType": "bool"
            },
            {
              "name": "recurringInterval",
              "type": "uint256",
              "internalType": "uint256"
            }
          ]
        }
      ],
      "stateMutability": "view"
    },
    {
      "type": "function",
      "name": "getGroupSettlementStatus",
      "inputs": [
        {
          "name": "groupId",
          "type": "uint256",
          "internalType": "uint256"
        }
      ],
      "outputs": [
        {
          "name": "settledCount",
          "type": "uint256",
          "internalType": "uint256"
        },
        {
          "name": "totalMembers",
          "type": "uint256",
          "internalType": "uint256"
        },
        {
          "name": "isCompleted",
          "type": "bool",
          "internalType": "bool"
        }
      ],
      "stateMutability": "view"
    },
    {
      "type": "function",
      "name": "getTokenPrice",
      "inputs": [
        {
          "name": "symbol",
          "type": "string",
          "internalType": "string"
        }
      ],
      "outputs": [
        {
          "name": "",
          "type": "uint256",
          "internalType": "uint256"
        }
      ],
      "stateMutability": "view"
    },
    {
      "type": "function",
      "name": "getUniqueSignersThreshold",
      "inputs": [],
      "outputs": [
        {
          "name": "",
          "type": "uint8",
          "internalType": "uint8"
        }
      ],
      "stateMutability": "view"
    },
    {
      "type": "function",
      "name": "getUserBalance",
      "inputs": [
        {
          "name": "groupId",
          "type": "uint256",
          "internalType": "uint256"
        },
        {
          "name": "user",
          "type": "address",
          "internalType": "address"
        }
      ],
      "outputs": [
        {
          "name": "",
          "type": "uint256",
          "internalType": "uint256"
        }
      ],
      "stateMutability": "view"
    },
    {
      "type": "function",
      "name": "getUserProfile",
      "inputs": [
        {
          "name": "user",
          "type": "address",
          "internalType": "address"
        }
      ],
      "outputs": [
        {
          "name": "",
          "type": "tuple",
          "internalType": "struct FlashSplit.UserProfile",
          "components": [
            {
              "name": "totalGroupsCreated",
              "type": "uint256",
              "internalType": "uint256"
            },
            {
              "name": "totalGroupsJoined",
              "type": "uint256",
              "internalType": "uint256"
            },
            {
              "name": "totalAmountSplit",
              "type": "uint256",
              "internalType": "uint256"
            },
            {
              "name": "reputationScore",
              "type": "uint256",
              "internalType": "uint256"
            },
            {
              "name": "fastSettlementCount",
              "type": "uint256",
              "internalType": "uint256"
            },
            {
              "name": "isActive",
              "type": "bool",
              "internalType": "bool"
            }
          ]
        }
      ],
      "stateMutability": "view"
    },
    {
      "type": "function",
      "name": "groupBasics",
      "inputs": [
        {
          "name": "",
          "type": "uint256",
          "internalType": "uint256"
        }
      ],
      "outputs": [
        {
          "name": "groupId",
          "type": "uint256",
          "internalType": "uint256"
        },
        {
          "name": "creator",
          "type": "address",
          "internalType": "address"
        },
        {
          "name": "groupName",
          "type": "string",
          "internalType": "string"
        },
        {
          "name": "currency",
          "type": "address",
          "internalType": "address"
        },
        {
          "name": "totalAmount",
          "type": "uint256",
          "internalType": "uint256"
        },
        {
          "name": "amountPerMember",
          "type": "uint256",
          "internalType": "uint256"
        },
        {
          "name": "settledCount",
          "type": "uint256",
          "internalType": "uint256"
        },
        {
          "name": "createdAt",
          "type": "uint256",
          "internalType": "uint256"
        },
        {
          "name": "settledAt",
          "type": "uint256",
          "internalType": "uint256"
        },
        {
          "name": "isCompleted",
          "type": "bool",
          "internalType": "bool"
        }
      ],
      "stateMutability": "view"
    },
    {
      "type": "function",
      "name": "groupCounter",
      "inputs": [],
      "outputs": [
        {
          "name": "",
          "type": "uint256",
          "internalType": "uint256"
        }
      ],
      "stateMutability": "view"
    },
    {
      "type": "function",
      "name": "groupSettings",
      "inputs": [
        {
          "name": "",
          "type": "uint256",
          "internalType": "uint256"
        }
      ],
      "outputs": [
        {
          "name": "category",
          "type": "uint8",
          "internalType": "enum FlashSplit.ExpenseCategory"
        },
        {
          "name": "splitType",
          "type": "uint8",
          "internalType": "enum FlashSplit.SplitType"
        },
        {
          "name": "isRecurring",
          "type": "bool",
          "internalType": "bool"
        },
        {
          "name": "recurringInterval",
          "type": "uint256",
          "internalType": "uint256"
        }
      ],
      "stateMutability": "view"
    },
    {
      "type": "function",
      "name": "hasUserSettled",
      "inputs": [
        {
          "name": "groupId",
          "type": "uint256",
          "internalType": "uint256"
        },
        {
          "name": "user",
          "type": "address",
          "internalType": "address"
        }
      ],
      "outputs": [
        {
          "name": "",
          "type": "bool",
          "internalType": "bool"
        }
      ],
      "stateMutability": "view"
    },
    {
      "type": "function",
      "name": "owner",
      "inputs": [],
      "outputs": [
        {
          "name": "",
          "type": "address",
          "internalType": "address"
        }
      ],
      "stateMutability": "view"
    },
    {
      "type": "function",
      "name": "removeSupportedToken",
      "inputs": [
        {
          "name": "token",
          "type": "address",
          "internalType": "address"
        }
      ],
      "outputs": [],
      "stateMutability": "nonpayable"
    },
    {
      "type": "function",
      "name": "renounceOwnership",
      "inputs": [],
      "outputs": [],
      "stateMutability": "nonpayable"
    },
    {
      "type": "function",
      "name": "rewardsContract",
      "inputs": [],
      "outputs": [
        {
          "name": "",
          "type": "address",
          "internalType": "contract FlashSplitRewards"
        }
      ],
      "stateMutability": "view"
    },
    {
      "type": "function",
      "name": "settleExpense",
      "inputs": [
        {
          "name": "groupId",
          "type": "uint256",
          "internalType": "uint256"
        }
      ],
      "outputs": [],
      "stateMutability": "payable"
    },
    {
      "type": "function",
      "name": "supportedTokens",
      "inputs": [
        {
          "name": "",
          "type": "address",
          "internalType": "address"
        }
      ],
      "outputs": [
        {
          "name": "",
          "type": "bool",
          "internalType": "bool"
        }
      ],
      "stateMutability": "view"
    },
    {
      "type": "function",
      "name": "totalPlatformFees",
      "inputs": [],
      "outputs": [
        {
          "name": "",
          "type": "uint256",
          "internalType": "uint256"
        }
      ],
      "stateMutability": "view"
    },
    {
      "type": "function",
      "name": "transferOwnership",
      "inputs": [
        {
          "name": "newOwner",
          "type": "address",
          "internalType": "address"
        }
      ],
      "outputs": [],
      "stateMutability": "nonpayable"
    },
    {
      "type": "function",
      "name": "userProfiles",
      "inputs": [
        {
          "name": "",
          "type": "address",
          "internalType": "address"
        }
      ],
      "outputs": [
        {
          "name": "totalGroupsCreated",
          "type": "uint256",
          "internalType": "uint256"
        },
        {
          "name": "totalGroupsJoined",
          "type": "uint256",
          "internalType": "uint256"
        },
        {
          "name": "totalAmountSplit",
          "type": "uint256",
          "internalType": "uint256"
        },
        {
          "name": "reputationScore",
          "type": "uint256",
          "internalType": "uint256"
        },
        {
          "name": "fastSettlementCount",
          "type": "uint256",
          "internalType": "uint256"
        },
        {
          "name": "isActive",
          "type": "bool",
          "internalType": "bool"
        }
      ],
      "stateMutability": "view"
    },
    {
      "type": "function",
      "name": "validateTimestamp",
      "inputs": [
        {
          "name": "receivedTimestampMilliseconds",
          "type": "uint256",
          "internalType": "uint256"
        }
      ],
      "outputs": [],
      "stateMutability": "view"
    },
    {
      "type": "function",
      "name": "withdrawPlatformFees",
      "inputs": [],
      "outputs": [],
      "stateMutability": "nonpayable"
    },
    {
      "type": "function",
      "name": "withdrawTokenFees",
      "inputs": [
        {
          "name": "token",
          "type": "address",
          "internalType": "address"
        }
      ],
      "outputs": [],
      "stateMutability": "nonpayable"
    },
    {
      "type": "event",
      "name": "ExpenseSettled",
      "inputs": [
        {
          "name": "groupId",
          "type": "uint256",
          "indexed": true,
          "internalType": "uint256"
        },
        {
          "name": "payer",
          "type": "address",
          "indexed": true,
          "internalType": "address"
        },
        {
          "name": "amount",
          "type": "uint256",
          "indexed": false,
          "internalType": "uint256"
        },
        {
          "name": "timestamp",
          "type": "uint256",
          "indexed": false,
          "internalType": "uint256"
        },
        {
          "name": "isGroupComplete",
          "type": "bool",
          "indexed": false,
          "internalType": "bool"
        }
      ],
      "anonymous": false
    },
    {
      "type": "event",
      "name": "GroupCreated",
      "inputs": [
        {
          "name": "groupId",
          "type": "uint256",
          "indexed": true,
          "internalType": "uint256"
        },
        {
          "name": "creator",
          "type": "address",
          "indexed": true,
          "internalType": "address"
        },
        {
          "name": "members",
          "type": "address[]",
          "indexed": false,
          "internalType": "address[]"
        },
        {
          "name": "currency",
          "type": "address",
          "indexed": false,
          "internalType": "address"
        },
        {
          "name": "totalAmount",
          "type": "uint256",
          "indexed": false,
          "internalType": "uint256"
        },
        {
          "name": "category",
          "type": "uint8",
          "indexed": false,
          "internalType": "enum FlashSplit.ExpenseCategory"
        },
        {
          "name": "timestamp",
          "type": "uint256",
          "indexed": false,
          "internalType": "uint256"
        }
      ],
      "anonymous": false
    },
    {
      "type": "event",
      "name": "OwnershipTransferred",
      "inputs": [
        {
          "name": "previousOwner",
          "type": "address",
          "indexed": true,
          "internalType": "address"
        },
        {
          "name": "newOwner",
          "type": "address",
          "indexed": true,
          "internalType": "address"
        }
      ],
      "anonymous": false
    },
    {
      "type": "event",
      "name": "RecurringPaymentTriggered",
      "inputs": [
        {
          "name": "groupId",
          "type": "uint256",
          "indexed": true,
          "internalType": "uint256"
        },
        {
          "name": "newGroupId",
          "type": "uint256",
          "indexed": false,
          "internalType": "uint256"
        },
        {
          "name": "timestamp",
          "type": "uint256",
          "indexed": false,
          "internalType": "uint256"
        }
      ],
      "anonymous": false
    },
    {
      "type": "event",
      "name": "UserReputationUpdated",
      "inputs": [
        {
          "name": "user",
          "type": "address",
          "indexed": true,
          "internalType": "address"
        },
        {
          "name": "oldScore",
          "type": "uint256",
          "indexed": false,
          "internalType": "uint256"
        },
        {
          "name": "newScore",
          "type": "uint256",
          "indexed": false,
          "internalType": "uint256"
        },
        {
          "name": "reason",
          "type": "string",
          "indexed": false,
          "internalType": "string"
        }
      ],
      "anonymous": false
    },
    {
      "type": "error",
      "name": "CalldataMustHaveValidPayload",
      "inputs": []
    },
    {
      "type": "error",
      "name": "CalldataOverOrUnderFlow",
      "inputs": []
    },
    {
      "type": "error",
      "name": "CanNotPickMedianOfEmptyArray",
      "inputs": []
    },
    {
      "type": "error",
      "name": "DataPackageTimestampMustNotBeZero",
      "inputs": []
    },
    {
      "type": "error",
      "name": "DataPackageTimestampsMustBeEqual",
      "inputs": []
    },
    {
      "type": "error",
      "name": "DataTimestampCannotBeZero",
      "inputs": []
    },
    {
      "type": "error",
      "name": "EachSignerMustProvideTheSameValue",
      "inputs": []
    },
    {
      "type": "error",
      "name": "EmptyCalldataPointersArr",
      "inputs": []
    },
    {
      "type": "error",
      "name": "GetDataServiceIdNotImplemented",
      "inputs": []
    },
    {
      "type": "error",
      "name": "IncorrectUnsignedMetadataSize",
      "inputs": []
    },
    {
      "type": "error",
      "name": "InsufficientNumberOfUniqueSigners",
      "inputs": [
        {
          "name": "receivedSignersCount",
          "type": "uint256",
          "internalType": "uint256"
        },
        {
          "name": "requiredSignersCount",
          "type": "uint256",
          "internalType": "uint256"
        }
      ]
    },
    {
      "type": "error",
      "name": "InvalidCalldataPointer",
      "inputs": []
    },
    {
      "type": "error",
      "name": "InvalidSignature",
      "inputs": [
        {
          "name": "signedHash",
          "type": "bytes32",
          "internalType": "bytes32"
        }
      ]
    },
    {
      "type": "error",
      "name": "OwnableInvalidOwner",
      "inputs": [
        {
          "name": "owner",
          "type": "address",
          "internalType": "address"
        }
      ]
    },
    {
      "type": "error",
      "name": "OwnableUnauthorizedAccount",
      "inputs": [
        {
          "name": "account",
          "type": "address",
          "internalType": "address"
        }
      ]
    },
    {
      "type": "error",
      "name": "RedstonePayloadMustHaveAtLeastOneDataPackage",
      "inputs": []
    },
    {
      "type": "error",
      "name": "ReentrancyGuardReentrantCall",
      "inputs": []
    },
    {
      "type": "error",
      "name": "SafeERC20FailedOperation",
      "inputs": [
        {
          "name": "token",
          "type": "address",
          "internalType": "address"
        }
      ]
    },
    {
      "type": "error",
      "name": "SignerNotAuthorised",
      "inputs": [
        {
          "name": "receivedSigner",
          "type": "address",
          "internalType": "address"
        }
      ]
    },
    {
      "type": "error",
      "name": "TimestampFromTooLongFuture",
      "inputs": [
        {
          "name": "receivedTimestampSeconds",
          "type": "uint256",
          "internalType": "uint256"
        },
        {
          "name": "blockTimestamp",
          "type": "uint256",
          "internalType": "uint256"
        }
      ]
    },
    {
      "type": "error",
      "name": "TimestampIsTooOld",
      "inputs": [
        {
          "name": "receivedTimestampSeconds",
          "type": "uint256",
          "internalType": "uint256"
        },
        {
          "name": "blockTimestamp",
          "type": "uint256",
          "internalType": "uint256"
        }
      ]
    },
    {
      "type": "error",
      "name": "TimestampsMustBeEqual",
      "inputs": []
    },
    {
      "type": "error",
      "name": "TooLargeValueByteSize",
      "inputs": [
        {
          "name": "valueByteSize",
          "type": "uint256",
          "internalType": "uint256"
        }
      ]
    }
  ],
  "bytecode": {
    "object": "0x60a03461011057601f61313538819003918201601f19168301916001600160401b038311848410176101145780849260209460405283398101031261011057516001600160a01b038116908190036101105760015f5533156100fd5760018054336001600160a01b0319821681179092556040519291906001600160a01b03167f8be0079c531659141344cd1fd0a4f28419497f9722a3daafe3b4186f6b6457e05f80a36080525f805260046020527f17ef568e3e12ab5b9c7254a8d58478811de00f9e6eb34345acd53bf8fd09d3ec805460ff1916600117905561300c908161012982396080518181816102e201528181610c7c01526124e90152f35b631e4fbdf760e01b5f525f60045260245ffd5b5f80fd5b634e487b7160e01b5f52604160045260245ffdfe6080604052600436101561001a575b3615610018575f80fd5b005b5f3560e01c8063043e7ce414610259578063220cce9714610254578063332d56d71461024f57806336cc81301461024a5780633ce142f51461024557806341fb7bd814610240578063484874eb1461023b5780635350758f14610236578063539aa77f1461023157806355a547d51461022c57806355ff7f34146102275780635b3eb5981461022257806368c4ac261461021d5780636d69fcaf1461021857806370a5f7cf14610213578063715018a61461020e57806376319190146102095780638da5cb5b14610204578063924aea56146101ff57806394cc0b24146101fa578063987ee156146101f5578063b24ebfcc146101f0578063c0a7540b146101eb578063c274583a146101e6578063ccba8905146101e1578063cdfb6cf3146101dc578063cfadadeb146101d7578063d0b7830b146101d2578063d24924fe146101cd578063d3631fa5146101c8578063e1e04e6d146101c3578063ee31daf4146101be578063f2fde38b146101b9578063f50b2efe146101b4578063f62722a0146101af5763f90c49240361000e576115a2565b611507565b61148f565b611405565b611374565b611318565b6112fb565b6112de565b611297565b611246565b6111ff565b6111a1565b611105565b611018565b610f7e565b610e7a565b610e1a565b610df0565b610dc8565b610d83565b610d28565b610b2b565b610ae3565b610aa3565b610a88565b610982565b610823565b610808565b6107be565b6106f6565b610676565b610457565b6103de565b610311565b6102cd565b610273565b6001600160a01b0381160361026f57565b5f80fd5b3461026f57604036600319011261026f5760206102ba6024356004356102988261025e565b5f5260078352600360405f20019060018060a01b03165f5260205260405f2090565b54604051908152f35b5f91031261026f57565b3461026f575f36600319011261026f576040517f00000000000000000000000000000000000000000000000000000000000000006001600160a01b03168152602090f35b3461026f57602036600319011261026f5760043561032e8161025e565b60018060a01b03165f52600560205260405f208054610398600183015492600281015490600381015460ff6005600484015493015416926040519687968794919260a0949197969360c0870198875260208701526040860152606085015260808401521515910152565b0390f35b60206040818301928281528451809452019201905f5b8181106103bf5750505090565b82516001600160a01b03168452602093840193909201916001016103b2565b3461026f57602036600319011261026f576004355f52600760205260405f206040519081602082549182815201915f5260205f20905f5b818110610438576103988561042c8187038261052c565b6040519182918261039c565b82546001600160a01b0316845260209093019260019283019201610415565b3461026f57602036600319011261026f57602061047e6004356104798161025e565b6115bd565b60ff60405191168152f35b90600182811c921680156104b7575b60208310146104a357565b634e487b7160e01b5f52602260045260245ffd5b91607f1691610498565b634e487b7160e01b5f52604160045260245ffd5b61014081019081106001600160401b038211176104f157604052565b6104c1565b60c081019081106001600160401b038211176104f157604052565b608081019081106001600160401b038211176104f157604052565b90601f801991011681019081106001600160401b038211176104f157604052565b9060405191825f82549261056084610489565b80845293600181169081156105cb5750600114610587575b506105859250038361052c565b565b90505f9291925260205f20905f915b8183106105af575050906020610585928201015f610578565b6020919350806001915483858901015201910190918492610596565b90506020925061058594915060ff191682840152151560051b8201015f610578565b805180835260209291819084018484015e5f828201840152601f01601f1916010190565b989592610120989592610645929c9b98959c8b5260018060a01b031660208b015261014060408b01526101408a01906105ed565b6001600160a01b03909a166060890152608088015260a087015260c086015260e08501526101008401521515910152565b3461026f57602036600319011261026f576004355f908152600660205260409020805460018201546001600160a01b031691610398906106b86002820161054d565b9060018060a01b036003820154166004820154600583015460068401549160078501549360ff6009600888015497015416966040519a8b9a8b610611565b3461026f57604036600319011261026f57602060ff61073f60243560043561071d8261025e565b5f5260078452600260405f20019060018060a01b03165f5260205260405f2090565b54166040519015158152f35b604051906105856101408361052c565b9291926001600160401b0382116104f15760405191610784601f8201601f19166020018461052c565b82948184528183011161026f578281602093845f960137010152565b9080601f8301121561026f578160206107bb9335910161075b565b90565b3461026f57602036600319011261026f576004356001600160401b03811161026f576108006107fb6107f660209336906004016107a0565b611689565b611a87565b604051908152f35b3461026f575f36600319011261026f57602060405160198152f35b3461026f575f36600319011261026f575f61ffff610847610842611ba9565b611c2d565b91169081156108e25791905f5b81811061086657604051838152602090f35b909161087184611c56565b9065ffffffffffff61088b610885876116bf565b3661173c565b35169081156108d357806108b057506001916108a79195611721565b93929101610854565b809591036108c4576001916108a791611721565b63d9d1f46560e01b5f5260045ffd5b630336dc9d60e41b5f5260045ffd5b632154bfcf60e21b5f5260045ffd5b60208082528251818301528201516001600160a01b031660408201526107bb9061014061012061093060408601518360608601526101608501906105ed565b60608601516001600160a01b0316608085015294608081015160a085015260a081015160c085015260c081015160e085015260e081015161010085015261010081015182850152015191019015159052565b3461026f57602036600319011261026f576004355f6101206040516109a6816104d5565b828152826020820152606060408201528260608201528260808201528260a08201528260c08201528260e08201528261010082015201525f52600660205261039860405f20610a7c610a7260096109fb61074b565b8454815260018501546001600160a01b0316602082015293610a1f6002820161054d565b604086015260038101546001600160a01b0316606086015260048101546080860152600581015460a0860152600681015460c0860152600781015460e08601526008810154610100860152015460ff1690565b1515610120830152565b604051918291826108f1565b3461026f575f36600319011261026f57602060405160148152f35b3461026f57602036600319011261026f57600435610ac08161025e565b60018060a01b03165f526004602052602060ff60405f2054166040519015158152f35b3461026f57602036600319011261026f57600435610b008161025e565b610b08611c81565b6001600160a01b03165f908152600460205260409020805460ff19166001179055005b602036600319011261026f576004356001600160401b03811161026f5780600401610120600319833603011261026f57610c6090610b67611ca8565b7f7be1b09688dd837fae82b3521f76a8e7ab6b31f9e4622e822b10a8a5351b25b460248401936002610b998685611749565b9050101580610d0d575b610bac9061177e565b606481013590610bc566038d7ea4c680008310156117c1565b610c7760448201610c03610bfe610bf7610bde84611800565b6001600160a01b03165f90815260046020526040902090565b5460ff1690565b61180a565b610c676084610c58610c1660025461184d565b9a8b99610c228b600255565b610c2c818c611ecf565b610c36818c611ff0565b610c40818c61217e565b610c53610c4d8383611749565b90612239565b611749565b999093611800565b940161185b565b6040519485943399429487611868565b0390a37f00000000000000000000000000000000000000000000000000000000000000006001600160a01b0316803b1561026f57604051639353724960e01b8152336004820152602481018390525f6044820181905290918290606490829084905af18015610d0857610cee575b61001860015f55565b80610cfc5f610d029361052c565b806102c3565b80610ce5565b6118e0565b50610bac6014610d1d8786611749565b905011159050610ba3565b3461026f575f36600319011261026f57610d40611c81565b600180546001600160a01b031981169091555f906001600160a01b03167f8be0079c531659141344cd1fd0a4f28419497f9722a3daafe3b4186f6b6457e08280a3005b3461026f57602036600319011261026f57600435610da08161025e565b610da8611c81565b6001600160a01b03165f908152600460205260409020805460ff19169055005b3461026f575f36600319011261026f576001546040516001600160a01b039091168152602090f35b3461026f57602036600319011261026f576004355f526007602052602060405f2054604051908152f35b3461026f57606036600319011261026f576004356024356001600160401b03811161026f57610e4d9036906004016107a0565b90604435906001600160401b03821161026f57602092610e746108009336906004016107a0565b91611937565b3461026f57602036600319011261026f57600435610e978161025e565b5f60a0604051610ea6816104f6565b828152826020820152826040820152826060820152826080820152015260018060a01b03165f52600560205261039860405f2060ff600560405192610eea846104f6565b8054845260018101546020850152600281015460408501526003810154606085015260048101546080850152015416151560a08201526040519182918291909160a08060c0830194805184526020810151602085015260408101516040850152606081015160608501526080810151608085015201511515910152565b6001600160401b0381116104f15760051b60200190565b3461026f57602036600319011261026f576004356001600160401b03811161026f573660238201121561026f57806004013590610fba82610f67565b91610fc8604051938461052c565b8083526024602084019160051b8301019136831161026f57602401905b82821061100857610398610ff8856126bd565b6040519081529081906020820190565b8135815260209182019101610fe5565b602036600319011261026f5760043561102f611ca8565b805f52600660205260405f20815f52600760205260405f20918154156110ce576110c96110b6610ce59461108861108361107f610bf733600286019060018060a01b03165f5260205260405f2090565b1590565b611971565b6110a161109c61107f600988015460ff1690565b6119af565b335f9081526001919091016020526040902090565b5480936110c48215156119ed565b612344565b61246a565b60405162461bcd60e51b815260206004820152600f60248201526e11dc9bdd5c081b9bdd08199bdd5b99608a1b6044820152606490fd5b3461026f575f36600319011261026f5761039860405161112660408261052c565b601781527f72656473746f6e652d6176616c616e6368652d70726f6400000000000000000060208201526040519182916020835260208301906105ed565b634e487b7160e01b5f52602160045260245ffd5b9060068210156111855752565b611164565b6004111561118557565b9060048210156111855752565b3461026f57602036600319011261026f576004355f526008602052608060405f206001815491015460ff604051926111db84838316611178565b6111ed60208501838360081c16611194565b60101c16151560408301526060820152f35b3461026f57604036600319011261026f5760206102ba6024356004356112248261025e565b5f5260078352600160405f20019060018060a01b03165f5260205260405f2090565b3461026f57602036600319011261026f576004355f9081526006602081815260408084209283015460078352938190205460099093015481519485529184019290925260ff16151590820152606090f35b3461026f575f36600319011261026f576112af611c81565b5f8080806003548160035560018060a01b03600154168282156112d5575bf115610d0857005b506108fc6112cd565b3461026f575f36600319011261026f576020600254604051908152f35b3461026f575f36600319011261026f576020600354604051908152f35b3461026f575f36600319011261026f57602060405166038d7ea4c680008152f35b919091606080608083019461134f848251611178565b61136160208201516020860190611194565b6040810151151560408501520151910152565b3461026f57602036600319011261026f576004355f606060405161139781610511565b82815282602082015282604082015201525f52600860205261039860405f206001604051916113c583610511565b60ff81546113d582821686611a26565b6113e7828260081c1660208701611a32565b60101c16151560408401520154606082015260405191829182611339565b3461026f57602036600319011261026f576004356114228161025e565b61142a611c81565b6001600160a01b0316801561147c57600180546001600160a01b0319811683179091556001600160a01b03167f8be0079c531659141344cd1fd0a4f28419497f9722a3daafe3b4186f6b6457e05f80a3005b631e4fbdf760e01b5f525f60045260245ffd5b3461026f57602036600319011261026f576103e8600435048042105f146114de574281038181116114d957603c106114c357005b63b6b0916d60e01b5f526004524260245260445ffd5b6116ab565b8042034281116114d95760b4106114f157005b630321d0b560e01b5f526004524260245260445ffd5b3461026f57602036600319011261026f576004356115248161025e565b61152c611c81565b6001546040516370a0823160e01b8152306004820152916001600160a01b039081169116602083602481855afa918215610d0857610018935f93611571575b5061263c565b61159491935060203d60201161159b575b61158c818361052c565b810190611a3e565b915f61156b565b503d611582565b3461026f575f36600319011261026f57602060405160038152f35b6001600160a01b038116731ea62d73edf8ac05dfcea1a34b9796e937a29eff81036115e85750505f90565b732c59617248994d12816ee1fa77ce0a64eeb456bf810361160a575050600190565b7312470f7aba85c8b81d63137dd5925d6ee114952b810361162c575050600290565b73109b4a318a4f5ddcbca6349b45f881b4137deafb810361164e575050600390565b7383cba8c619fb629b81a65c2e67fe15cf3e3c97470361166e5750600490565b6303b1166f60e61b5f526001600160a01b031660045260245ffd5b60208151910151906020811061169d575090565b5f199060200360031b1b1690565b634e487b7160e01b5f52601160045260245ffd5b90606882018092116114d957565b90600282018092116114d957565b90600a82018092116114d957565b90602082018092116114d957565b90600d82018092116114d957565b90604182018092116114d957565b90604e82018092116114d957565b919082018092116114d957565b5f198101919082116114d957565b919082039182116114d957565b903590601e198136030182121561026f57018035906001600160401b03821161026f57602001918160051b3603831361026f57565b1561178557565b60405162461bcd60e51b8152602060048201526014602482015273125b9d985b1a59081b595b58995c8818dbdd5b9d60621b6044820152606490fd5b156117c857565b60405162461bcd60e51b815260206004820152601060248201526f105b5bdd5b9d081d1bdbc81cdb585b1b60821b6044820152606490fd5b356107bb8161025e565b1561181157565b60405162461bcd60e51b8152602060048201526014602482015273556e737570706f727465642063757272656e637960601b6044820152606490fd5b5f1981146114d95760010190565b35600681101561026f5790565b939196959492968060a0860160a087525260c0850191905f5b8181106118b6575050506001600160a01b0390961660208401526040830152608091906118b2906060830190611178565b0152565b90919260208060019286356118ca8161025e565b848060a01b031681520194019101919091611881565b6040513d5f823e3d90fd5b906019820291808304601914901517156114d957565b818102929181159184041417156114d957565b634e487b7160e01b5f52601260045260245ffd5b8115611932570490565b611914565b9181516020830120815160208301201461196c576119666107fb6119606107fb61192895611689565b92611689565b92611901565b505090565b1561197857565b60405162461bcd60e51b815260206004820152600f60248201526e105b1c9958591e481cd95d1d1b1959608a1b6044820152606490fd5b156119b657565b60405162461bcd60e51b815260206004820152600f60248201526e11dc9bdd5c0818dbdb5c1b195d1959608a1b6044820152606490fd5b156119f457565b60405162461bcd60e51b815260206004820152600a6024820152694e6f2062616c616e636560b01b6044820152606490fd5b60068210156111855752565b60048210156111855752565b9081602091031261026f575190565b634e487b7160e01b5f52603260045260245ffd5b805115611a6e5760200190565b611a4d565b8051821015611a6e5760209160051b010190565b90604090815192611a98838561052c565b6001845260208401601f198401368237845115611a6e57525f611abb8451612bb6565b611ac58551612bb6565b94611ad08151612be8565b955f5b8251811015611b0357600190611ae7612b94565b611af1828b611a73565b52611afc818a611a73565b5001611ad3565b509192939461ffff91611b17610842611ba9565b93169382519160205f9301945b868410611b525750505050505050611b43611b4991611b4e9495612e61565b916125f0565b611a61565b5190565b611b5f908b848a85612c9a565b9390938015611b9a57898103611b7d575b5085855260010192611b24565b9098611b8b57976001611b70565b63265e23a160e11b5f5260045ffd5b63dfb25a7960e01b5f5260045ffd5b6602ed57011e0000601f19360135166602ed57011e000003611c1e5736602911611c0f5762ffffff60281936013516600381018091116114d957600981018091116114d95736611bf8826116cd565b11611c005790565b63c30a7bd760e01b5f5260045ffd5b632bcb7bc560e11b5f5260045ffd5b6373bb264f60e11b5f5260045ffd5b90602082018083116114d9573610611c0f5760028201918281116114d9573603601f1901359190565b611c5f9061267c565b602001806020116114d957611c7391611901565b604e81018091116114d95790565b6001546001600160a01b03163303611c9557565b63118cdaa760e01b5f523360045260245ffd5b60025f5414611cb75760025f55565b633ee5aeb560e01b5f5260045ffd5b903590601e198136030182121561026f57018035906001600160401b03821161026f5760200191813603831361026f57565b601f8211611d0557505050565b5f5260205f20906020601f840160051c83019310611d3d575b601f0160051c01905b818110611d32575050565b5f8155600101611d27565b9091508190611d1e565b91909182516001600160401b0381116104f157611d6e81611d688454610489565b84611cf8565b6020601f8211600114611dad578190611d9e9394955f92611da2575b50508160011b915f199060031b1c19161790565b9055565b015190505f80611d8a565b601f19821690611dc0845f5260205f2090565b915f5b818110611dfa57509583600195969710611de2575b505050811b019055565b01515f1960f88460031b161c191690555f8080611dd8565b9192602060018192868b015181550194019201611dc3565b8151815560208201516001820180546001600160a01b0319166001600160a01b0390921691909117905561058591600990611ebc9061012090611e5c604082015160028701611d47565b60608101516003860180546001600160a01b0319166001600160a01b039092169190911790556080810151600486015560a0810151600586015560c0810151600686015560e0810151600786015561010081015160088601550151151590565b91019060ff801983541691151516179055565b90611f7361058592611ee18380611cc6565b93611f41611ef160408301611800565b611f2c611f12611f0a6060860135956020810190611749565b905085611928565b94611f1b61074b565b87815233602082015298369161075b565b60408801526001600160a01b03166060870152565b608085015260a08401525f60c08401524260e08401525f6101008401525f6101208401525f52600660205260405f2090565b611e12565b9190811015611a6e5760051b0190565b8054821015611a6e575f5260205f2001905f90565b8054680100000000000000008110156104f157611fbf91600182018155611f88565b81546001600160a01b0393841660039290921b91821b9390911b1916919091179055565b35600481101561026f5790565b612005909291925f52600760205260405f2090565b915f5b602082016120168184611749565b905082101561214057908161204861204261203d8461203760019789611749565b90611f78565b611800565b87611f9d565b8581858461205860a08301611fe3565b6120618161118a565b6120b957505050506120b161209761203d8461203761209060608a0135612088888c611749565b919050611928565b9589611749565b6001600160a01b03165f9081528785016020526040902090565b555b01612008565b6120376121178261203761211f968661211061213a9a8e6120f761203d8861203760c061203d9f01986120f0836120378c8c611749565b3598611749565b6001600160a01b03165f90815291016020526040902090565b558c611749565b359589611749565b6001600160a01b03165f908152600388016020526040902090565b556120b3565b5050509050565b9060068110156111855760ff80198354169116179055565b9060048110156111855761ff0082549160081b169061ff001916179055565b9061218b6080820161185b565b9161219860a08301611fe3565b60e08301359283151580940361026f576101000135916121c4604051956121be87610511565b86611a26565b6121d2602086019283611a32565b60408501938452606085019283525f52600860205260405f2093516006811015611185576122009085612147565b5160048110156111855760019261221a612233928661215f565b51845462ff0000191690151560101b62ff000016178455565b51910155565b90335f52600560205260405f20612250815461184d565b9055335f90815260056020819052604090912061227791905b01805460ff19166001179055565b5f5b81811061228557505050565b600190336122a661229a61203d848789611f78565b6001600160a01b031690565b036122b2575b01612279565b816122dd6122c461203d848789611f78565b6001600160a01b03165f90815260056020526040902090565b016122e8815461184d565b905561230060056122696122c461203d85888a611f78565b6122ac565b1561230c57565b60405162461bcd60e51b815260206004820152601060248201526f092dce6eaccccd2c6d2cadce8408aa8960831b6044820152606490fd5b90612359612351826118eb565b612710900490565b91612364838361173c565b6003820180549192916001600160a01b03168061240a5750505f8080936123a861229a61229a6001859761239a8b341015612305565b01546001600160a01b031690565b828215612401575bf115610d08578034116123d4575b506123cf610585915b600354611721565b600355565b5f80806123e281943461173c565b8181156123f8575b3390f115610d08575f6123be565b506108fc6123ea565b506108fc6123b0565b6123cf945061229a86949261244f610585989461246596612447600161243861245c9860018060a01b031690565b9201546001600160a01b031690565b903390612754565b546001600160a01b031690565b30903390612754565b6123c7565b61247c815f52600660205260405f2090565b6124e7836007612494855f52600760205260405f2090565b936124a7865f52600860205260405f2090565b335f9081526002870160205260409020805460ff1916600117905594600682016124d1815461184d565b81555490541494856125b4575b50015433612a75565b7f00000000000000000000000000000000000000000000000000000000000000006001600160a01b031690813b1561026f57604051639353724960e01b81523360048201526024810184905260448101859052915f908390606490829084905af1908115610d08577f1ab6f3bdbca067ed2c1e0ab6b1afe4cf3264bc044f4990ed908f11120dd1ea449261259b926125a0575b50604080519586524260208701529015159085015233939081906060820190565b0390a3565b80610cfc5f6125ae9361052c565b5f61257a565b60098201805460ff191660011790556125d7904260088401555460101c60ff1690565b6125e2575b5f6124de565b6125eb86612857565b6125dc565b6103e890048042105f14612628574281038181116114d957603c106126125750565b63b6b0916d60e01b5f526004524260245260445ffd5b8042034281116114d95760b4106114f15750565b60405163a9059cbb60e01b60208201526001600160a01b0390921660248301526044808301939093529181526105859161267760648361052c565b612b3c565b604181018082116114d95760618201106114d9573603906060198201913683116114d95760631901918083116114d9573562ffffff16913563ffffffff1690565b600281511461272d5780511561271e576126d681612c31565b805160011c8151600116612715576107bb91612708826127016126fb61270f9561172e565b84611a73565b5192611a73565b5190611721565b60011c90565b611b4e91611a73565b639e198af960e01b5f5260045ffd5b61273681611a61565b5190805160011015611a6e576107bb91604061270f92015190611721565b6040516323b872dd60e01b60208201526001600160a01b0392831660248201529290911660448301526064808301939093529181526105859161267760848361052c565b5f92918154916127a783610489565b92600181169081156127ef57506001146127c057505050565b90919293505f5260205f205f905b8382106127db5750500190565b6001816020925484860152019101906127ce565b60ff191683525050811515909102019150565b9080820361280e575050565b60018161282060ff8394541685612147565b61283160ff825460081c168561215f565b8054845462ff00001916601091821c60ff16151590911b62ff0000161784550154910155565b9061286360025461184d565b9061286d82600255565b61287f835f52600660205260405f2090565b92612995612895825f52600760205260405f2090565b9461297e6128ab845f52600860205260405f2090565b60018301549092906001600160a01b031690604051906128f6826128e86128d86020830160028601612798565b632028522960e01b815260040190565b03601f19810184528361052c565b6003810154612948906001600160a01b0316600560048401549301549361293361291e61074b565b8d81526001600160a01b039097166020880152565b60408601526001600160a01b03166060850152565b608083015260a08201525f60c08201524260e08201525f6101008201525f610120820152611f73875f52600660205260405f2090565b612990855f52600860205260405f2090565b612802565b6129a7835f52600760205260405f2090565b915f9260018601956001820192600382019460038401965b8354811015612a2b57806129ed6129d860019387611f88565b905460039190911b1c6001600160a01b031690565b6129f78188611f9d565b6001600160a01b03165f90815260208c81526040808320548a8352818420558a825280832054918c905290912055016129bf565b50604080519889524260208a0152919850967fc180bc5ffa7b78e5a50cf04adc0982d8fdef6e7efe3472ab18a54b9bdfb47d059650945084935083019150612a709050565b0390a2565b6001600160a01b03165f81815260056020526040902060028101805492949193929182019182106114d9575542034281116114d957610e101015612ab7575050565b60038160047f27551ce793b2dc050bc35f140df12069b7ad1f6d80cebde194a2045e449081de9301612ae9815461184d565b905501805490612af8826116db565b81555490612a7060405192839283909160a0928252602082015260606040820152600f60608201526e11985cdd0814d95d1d1b195b595b9d608a1b60808201520190565b905f602091828151910182855af1156118e0575f513d612b8b57506001600160a01b0381163b155b612b6b5750565b635274afe760e01b5f9081526001600160a01b0391909116600452602490fd5b60011415612b64565b60405160809190612ba5838261052c565b6003815291601f1901366020840137565b90612bc082610f67565b612bcd604051918261052c565b8281528092612bde601f1991610f67565b0190602036910137565b90612bf282610f67565b612bff604051918261052c565b8281528092612c10601f1991610f67565b01905f5b828110612c2057505050565b806060602080938501015201612c14565b805160051b810160209081019101805b828110612c4d57505050565b815b818110612c5f5750602001612c41565b60209082518151808210612c76575b505001612c4f565b845281525f80612c6e565b9060405191818352602082840101604052602083013790565b9094939294612ca88461267c565b939091612cb4856116e9565b612cbe9084611901565b612cc7906116f7565b97612cd1876116bf565b612cdb903661173c565b988080612ce78a611705565b90612cf191611721565b612cfb903661173c565b90612d0591612c81565b60200120612d1288611705565b612d1b91612eda565b612d24906115bd565b60ff1696612d3190611713565b965f945b808610612d5257505050505050505065ffffffffffff9092351690565b9193969990929497612d6a8b612d6f929b989b611721565b6116e9565b95612d7a8b88612f9b565b9790935f5b8c51811015612e4b57612d92818e611a73565b518614612da157600101612d7f565b90988a9896979550612dbd82959e956001959e9c9d949d611a73565b516001891b81161580612e37575b612de1575b5050505b0195969594939096612d35565b612e2e91612e04612df2858a611a73565b51612dfd868c611a73565b5190611a73565b52612e18612e12848a611a73565b5161184d565b612e22848a611a73565b5284891b179189611a73565b525f8080612dd0565b506003612e44848a611a73565b5110612dcb565b509750986001919a9896949593509a919a612dd4565b9190612e6d8351612bb6565b905f5b8451811015612ed3576003612e858284611a73565b5110612eb25780612ea1612e9b60019388611a73565b516126bd565b612eab8286611a73565b5201612e70565b612ebb91611a73565b51632b13aef560e01b5f52600452600360245260445ffd5b5090925050565b9190360360208101359060408101355f1a91601b83141580612f90575b612f7c577f7fffffffffffffffffffffffffffffff5d576e7357a4501ddfe92f46681b20a08111612f7c576040805186815260ff9490941660208086019190915292359084015260608301525f808052909160809060015afa15610d08575f51916001600160a01b03831615612f6a5750565b633335be5d60e11b5f5260045260245ffd5b633335be5d60e11b5f52600485905260245ffd5b50601c831415612ef7565b9190913603913683116114d9578235926021821015612fc357602001359060200360031b1c90565b506360007e2160e11b5f5260045260245ffdfea2646970667358221220652f3afe46e1055b00c146a385bd29e0731d6104d7d89208ae401e2b4379b7de64736f6c634300081e0033",
    "linkReferences": {}
  },
  "methodIdentifiers": {
    "MAX_GROUP_MEMBERS()": "5b3eb598",
    "MIN_EXPENSE_AMOUNT()": "e1e04e6d",
    "PLATFORM_FEE_BPS()": "539aa77f",
    "addSupportedToken(address)": "6d69fcaf",
    "aggregateValues(uint256[])": "b24ebfcc",
    "convertCurrency(uint256,string,string)": "94cc0b24",
    "createExpenseGroup((string,address[],address,uint256,uint8,uint8,uint256[],bool,uint256))": "70a5f7cf",
    "extractTimestampsAndAssertAllAreEqual()": "55a547d5",
    "getAuthorisedSignerIndex(address)": "3ce142f5",
    "getCustomSplit(uint256,address)": "043e7ce4",
    "getDataServiceId()": "c274583a",
    "getGroupBasic(uint256)": "55ff7f34",
    "getGroupMemberCount(uint256)": "924aea56",
    "getGroupMembers(uint256)": "36cc8130",
    "getGroupSettings(uint256)": "ee31daf4",
    "getGroupSettlementStatus(uint256)": "cfadadeb",
    "getTokenPrice(string)": "5350758f",
    "getUniqueSignersThreshold()": "f90c4924",
    "getUserBalance(uint256,address)": "cdfb6cf3",
    "getUserProfile(address)": "987ee156",
    "groupBasics(uint256)": "41fb7bd8",
    "groupCounter()": "d24924fe",
    "groupSettings(uint256)": "ccba8905",
    "hasUserSettled(uint256,address)": "484874eb",
    "owner()": "8da5cb5b",
    "removeSupportedToken(address)": "76319190",
    "renounceOwnership()": "715018a6",
    "rewardsContract()": "220cce97",
    "settleExpense(uint256)": "c0a7540b",
    "supportedTokens(address)": "68c4ac26",
    "totalPlatformFees()": "d3631fa5",
    "transferOwnership(address)": "f2fde38b",
    "userProfiles(address)": "332d56d7",
    "validateTimestamp(uint256)": "f50b2efe",
    "withdrawPlatformFees()": "d0b7830b",
    "withdrawTokenFees(address)": "f62722a0"
  },
  "id": 46
}