{
  "abi": [
    {
      "type": "constructor",
      "inputs": [],
      "stateMutability": "nonpayable"
    },
    {
      "type": "function",
      "name": "EXECUTION_DELAY",
      "inputs": [],
      "outputs": [
        {
          "name": "",
          "type": "uint256",
          "internalType": "uint256"
        }
      ],
      "stateMutability": "view"
    },
    {
      "type": "function",
      "name": "PROPOSAL_THRESHOLD",
      "inputs": [],
      "outputs": [
        {
          "name": "",
          "type": "uint256",
          "internalType": "uint256"
        }
      ],
      "stateMutability": "view"
    },
    {
      "type": "function",
      "name": "QUORUM_THRESHOLD",
      "inputs": [],
      "outputs": [
        {
          "name": "",
          "type": "uint256",
          "internalType": "uint256"
        }
      ],
      "stateMutability": "view"
    },
    {
      "type": "function",
      "name": "TOKEN_NAME",
      "inputs": [],
      "outputs": [
        {
          "name": "",
          "type": "string",
          "internalType": "string"
        }
      ],
      "stateMutability": "view"
    },
    {
      "type": "function",
      "name": "TOKEN_SYMBOL",
      "inputs": [],
      "outputs": [
        {
          "name": "",
          "type": "string",
          "internalType": "string"
        }
      ],
      "stateMutability": "view"
    },
    {
      "type": "function",
      "name": "VOTING_PERIOD",
      "inputs": [],
      "outputs": [
        {
          "name": "",
          "type": "uint256",
          "internalType": "uint256"
        }
      ],
      "stateMutability": "view"
    },
    {
      "type": "function",
      "name": "castVote",
      "inputs": [
        {
          "name": "_proposalId",
          "type": "uint256",
          "internalType": "uint256"
        },
        {
          "name": "_support",
          "type": "uint8",
          "internalType": "uint8"
        },
        {
          "name": "_reason",
          "type": "string",
          "internalType": "string"
        }
      ],
      "outputs": [],
      "stateMutability": "nonpayable"
    },
    {
      "type": "function",
      "name": "createProposal",
      "inputs": [
        {
          "name": "_title",
          "type": "string",
          "internalType": "string"
        },
        {
          "name": "_description",
          "type": "string",
          "internalType": "string"
        },
        {
          "name": "_type",
          "type": "uint8",
          "internalType": "enum FlashSplitGovernance.ProposalType"
        },
        {
          "name": "_parameterKeys",
          "type": "string[]",
          "internalType": "string[]"
        },
        {
          "name": "_parameterValues",
          "type": "uint256[]",
          "internalType": "uint256[]"
        }
      ],
      "outputs": [],
      "stateMutability": "nonpayable"
    },
    {
      "type": "function",
      "name": "delegateVotes",
      "inputs": [
        {
          "name": "_delegate",
          "type": "address",
          "internalType": "address"
        },
        {
          "name": "_amount",
          "type": "uint256",
          "internalType": "uint256"
        }
      ],
      "outputs": [],
      "stateMutability": "nonpayable"
    },
    {
      "type": "function",
      "name": "delegatedVotes",
      "inputs": [
        {
          "name": "",
          "type": "address",
          "internalType": "address"
        }
      ],
      "outputs": [
        {
          "name": "",
          "type": "uint256",
          "internalType": "uint256"
        }
      ],
      "stateMutability": "view"
    },
    {
      "type": "function",
      "name": "emergencyPause",
      "inputs": [
        {
          "name": "_proposalId",
          "type": "uint256",
          "internalType": "uint256"
        }
      ],
      "outputs": [],
      "stateMutability": "nonpayable"
    },
    {
      "type": "function",
      "name": "executeProposal",
      "inputs": [
        {
          "name": "_proposalId",
          "type": "uint256",
          "internalType": "uint256"
        }
      ],
      "outputs": [],
      "stateMutability": "nonpayable"
    },
    {
      "type": "function",
      "name": "fundTreasury",
      "inputs": [],
      "outputs": [],
      "stateMutability": "payable"
    },
    {
      "type": "function",
      "name": "getProposal",
      "inputs": [
        {
          "name": "_proposalId",
          "type": "uint256",
          "internalType": "uint256"
        }
      ],
      "outputs": [
        {
          "name": "proposer",
          "type": "address",
          "internalType": "address"
        },
        {
          "name": "title",
          "type": "string",
          "internalType": "string"
        },
        {
          "name": "description",
          "type": "string",
          "internalType": "string"
        },
        {
          "name": "proposalType",
          "type": "uint8",
          "internalType": "enum FlashSplitGovernance.ProposalType"
        },
        {
          "name": "status",
          "type": "uint8",
          "internalType": "enum FlashSplitGovernance.ProposalStatus"
        },
        {
          "name": "startTime",
          "type": "uint256",
          "internalType": "uint256"
        },
        {
          "name": "endTime",
          "type": "uint256",
          "internalType": "uint256"
        },
        {
          "name": "forVotes",
          "type": "uint256",
          "internalType": "uint256"
        },
        {
          "name": "againstVotes",
          "type": "uint256",
          "internalType": "uint256"
        },
        {
          "name": "abstainVotes",
          "type": "uint256",
          "internalType": "uint256"
        }
      ],
      "stateMutability": "view"
    },
    {
      "type": "function",
      "name": "getProposalParameters",
      "inputs": [
        {
          "name": "_proposalId",
          "type": "uint256",
          "internalType": "uint256"
        },
        {
          "name": "_key",
          "type": "string",
          "internalType": "string"
        }
      ],
      "outputs": [
        {
          "name": "",
          "type": "uint256",
          "internalType": "uint256"
        }
      ],
      "stateMutability": "view"
    },
    {
      "type": "function",
      "name": "getTreasuryBalance",
      "inputs": [],
      "outputs": [
        {
          "name": "",
          "type": "uint256",
          "internalType": "uint256"
        }
      ],
      "stateMutability": "view"
    },
    {
      "type": "function",
      "name": "getUserVotingPower",
      "inputs": [
        {
          "name": "_user",
          "type": "address",
          "internalType": "address"
        }
      ],
      "outputs": [
        {
          "name": "",
          "type": "uint256",
          "internalType": "uint256"
        }
      ],
      "stateMutability": "view"
    },
    {
      "type": "function",
      "name": "grantVotingPower",
      "inputs": [
        {
          "name": "_user",
          "type": "address",
          "internalType": "address"
        },
        {
          "name": "_amount",
          "type": "uint256",
          "internalType": "uint256"
        }
      ],
      "outputs": [],
      "stateMutability": "nonpayable"
    },
    {
      "type": "function",
      "name": "hasVoted",
      "inputs": [
        {
          "name": "",
          "type": "address",
          "internalType": "address"
        },
        {
          "name": "",
          "type": "uint256",
          "internalType": "uint256"
        }
      ],
      "outputs": [
        {
          "name": "",
          "type": "bool",
          "internalType": "bool"
        }
      ],
      "stateMutability": "view"
    },
    {
      "type": "function",
      "name": "owner",
      "inputs": [],
      "outputs": [
        {
          "name": "",
          "type": "address",
          "internalType": "address"
        }
      ],
      "stateMutability": "view"
    },
    {
      "type": "function",
      "name": "proposalCounter",
      "inputs": [],
      "outputs": [
        {
          "name": "",
          "type": "uint256",
          "internalType": "uint256"
        }
      ],
      "stateMutability": "view"
    },
    {
      "type": "function",
      "name": "proposals",
      "inputs": [
        {
          "name": "",
          "type": "uint256",
          "internalType": "uint256"
        }
      ],
      "outputs": [
        {
          "name": "id",
          "type": "uint256",
          "internalType": "uint256"
        },
        {
          "name": "proposer",
          "type": "address",
          "internalType": "address"
        },
        {
          "name": "title",
          "type": "string",
          "internalType": "string"
        },
        {
          "name": "description",
          "type": "string",
          "internalType": "string"
        },
        {
          "name": "proposalType",
          "type": "uint8",
          "internalType": "enum FlashSplitGovernance.ProposalType"
        },
        {
          "name": "status",
          "type": "uint8",
          "internalType": "enum FlashSplitGovernance.ProposalStatus"
        },
        {
          "name": "startTime",
          "type": "uint256",
          "internalType": "uint256"
        },
        {
          "name": "endTime",
          "type": "uint256",
          "internalType": "uint256"
        },
        {
          "name": "forVotes",
          "type": "uint256",
          "internalType": "uint256"
        },
        {
          "name": "againstVotes",
          "type": "uint256",
          "internalType": "uint256"
        },
        {
          "name": "abstainVotes",
          "type": "uint256",
          "internalType": "uint256"
        },
        {
          "name": "parametersHash",
          "type": "bytes32",
          "internalType": "bytes32"
        },
        {
          "name": "executed",
          "type": "bool",
          "internalType": "bool"
        }
      ],
      "stateMutability": "view"
    },
    {
      "type": "function",
      "name": "renounceOwnership",
      "inputs": [],
      "outputs": [],
      "stateMutability": "nonpayable"
    },
    {
      "type": "function",
      "name": "transferOwnership",
      "inputs": [
        {
          "name": "newOwner",
          "type": "address",
          "internalType": "address"
        }
      ],
      "outputs": [],
      "stateMutability": "nonpayable"
    },
    {
      "type": "function",
      "name": "treasuryBalance",
      "inputs": [],
      "outputs": [
        {
          "name": "",
          "type": "uint256",
          "internalType": "uint256"
        }
      ],
      "stateMutability": "view"
    },
    {
      "type": "function",
      "name": "votingPower",
      "inputs": [
        {
          "name": "",
          "type": "address",
          "internalType": "address"
        }
      ],
      "outputs": [
        {
          "name": "",
          "type": "uint256",
          "internalType": "uint256"
        }
      ],
      "stateMutability": "view"
    },
    {
      "type": "event",
      "name": "OwnershipTransferred",
      "inputs": [
        {
          "name": "previousOwner",
          "type": "address",
          "indexed": true,
          "internalType": "address"
        },
        {
          "name": "newOwner",
          "type": "address",
          "indexed": true,
          "internalType": "address"
        }
      ],
      "anonymous": false
    },
    {
      "type": "event",
      "name": "ParameterUpdated",
      "inputs": [
        {
          "name": "parameterName",
          "type": "string",
          "indexed": true,
          "internalType": "string"
        },
        {
          "name": "oldValue",
          "type": "uint256",
          "indexed": false,
          "internalType": "uint256"
        },
        {
          "name": "newValue",
          "type": "uint256",
          "indexed": false,
          "internalType": "uint256"
        },
        {
          "name": "proposalId",
          "type": "uint256",
          "indexed": false,
          "internalType": "uint256"
        }
      ],
      "anonymous": false
    },
    {
      "type": "event",
      "name": "ProposalCreated",
      "inputs": [
        {
          "name": "proposalId",
          "type": "uint256",
          "indexed": true,
          "internalType": "uint256"
        },
        {
          "name": "proposer",
          "type": "address",
          "indexed": true,
          "internalType": "address"
        },
        {
          "name": "title",
          "type": "string",
          "indexed": false,
          "internalType": "string"
        },
        {
          "name": "proposalType",
          "type": "uint8",
          "indexed": false,
          "internalType": "enum FlashSplitGovernance.ProposalType"
        },
        {
          "name": "startTime",
          "type": "uint256",
          "indexed": false,
          "internalType": "uint256"
        },
        {
          "name": "endTime",
          "type": "uint256",
          "indexed": false,
          "internalType": "uint256"
        }
      ],
      "anonymous": false
    },
    {
      "type": "event",
      "name": "ProposalExecuted",
      "inputs": [
        {
          "name": "proposalId",
          "type": "uint256",
          "indexed": true,
          "internalType": "uint256"
        },
        {
          "name": "executor",
          "type": "address",
          "indexed": true,
          "internalType": "address"
        }
      ],
      "anonymous": false
    },
    {
      "type": "event",
      "name": "TreasuryFunded",
      "inputs": [
        {
          "name": "funder",
          "type": "address",
          "indexed": true,
          "internalType": "address"
        },
        {
          "name": "amount",
          "type": "uint256",
          "indexed": false,
          "internalType": "uint256"
        },
        {
          "name": "timestamp",
          "type": "uint256",
          "indexed": false,
          "internalType": "uint256"
        }
      ],
      "anonymous": false
    },
    {
      "type": "event",
      "name": "VoteCasted",
      "inputs": [
        {
          "name": "proposalId",
          "type": "uint256",
          "indexed": true,
          "internalType": "uint256"
        },
        {
          "name": "voter",
          "type": "address",
          "indexed": true,
          "internalType": "address"
        },
        {
          "name": "support",
          "type": "uint8",
          "indexed": false,
          "internalType": "uint8"
        },
        {
          "name": "weight",
          "type": "uint256",
          "indexed": false,
          "internalType": "uint256"
        },
        {
          "name": "reason",
          "type": "string",
          "indexed": false,
          "internalType": "string"
        }
      ],
      "anonymous": false
    },
    {
      "type": "error",
      "name": "OwnableInvalidOwner",
      "inputs": [
        {
          "name": "owner",
          "type": "address",
          "internalType": "address"
        }
      ]
    },
    {
      "type": "error",
      "name": "OwnableUnauthorizedAccount",
      "inputs": [
        {
          "name": "account",
          "type": "address",
          "internalType": "address"
        }
      ]
    },
    {
      "type": "error",
      "name": "ReentrancyGuardReentrantCall",
      "inputs": []
    }
  ],
  "bytecode": {
    "object": "0x60808060405234608d573315607a575f8054336001600160a01b0319821681178355916001600160a01b03909116907f8be0079c531659141344cd1fd0a4f28419497f9722a3daafe3b4186f6b6457e09080a360018055335f52600560205269d3c21bcecceda100000060405f205561191990816100928239f35b631e4fbdf760e01b5f525f60045260245ffd5b5f80fdfe60806040526004361015610011575f80fd5b5f3560e01c8063013cf08b146114fd5780630baca2e5146114b05780630c0512e9146114935780630d61b5191461117557806318821400146111255780632a905318146110dc578063313dab201461040b57806334d58b321461095957806337f135d71461093c57806342545825146108f3578063470b7622146106335780635e510b601461060f5780635eafdecd146105bb578063609b2486146104eb578063715018a6146104945780638da5cb5b1461046d578063919a1539146104285780639b5655dc1461040b578063a6c26603146103e7578063ad3fbe30146103ac578063b1610d7e1461038f578063b9c1868514610306578063c07473f6146102ce578063c7f758a8146101f8578063d364d4d4146101c05763f2fde38b14610137575f80fd5b346101bc5760203660031901126101bc5761015061173a565b6101586118bd565b6001600160a01b031680156101a9575f80546001600160a01b03198116831782556001600160a01b0316907f8be0079c531659141344cd1fd0a4f28419497f9722a3daafe3b4186f6b6457e09080a3005b631e4fbdf760e01b5f525f60045260245ffd5b5f80fd5b346101bc5760203660031901126101bc576001600160a01b036101e161173a565b165f526007602052602060405f2054604051908152f35b346101bc5760203660031901126101bc576004355f52600460205260405f2060018060a01b0360018201541660048201546005830154600684015460078501546008860154916009870154936102af61028e610262600361025b60028d0161165c565b9b0161165c565b6102806040519b8c9b8c5261014060208d01526101408c01906116fc565b908a820360408c01526116fc565b9661029f60608a0160ff8316611720565b60ff60808a019160081c1661172d565b60a087015260c086015260e08501526101008401526101208301520390f35b346101bc5760203660031901126101bc576001600160a01b036102ef61173a565b165f526005602052602060405f2054604051908152f35b5f3660031901126101bc57341561035a57610323346003546117bc565b6003556040513481524260208201527fc368570c718ead78e572d31d3c0a44869e1623a1355733b857032ded01322d8360403392a2005b60405162461bcd60e51b815260206004820152600d60248201526c09aeae6e840e6cadcc8408aa89609b1b6044820152606490fd5b346101bc575f3660031901126101bc57602060405162093a808152f35b346101bc5760203660031901126101bc576103c56118bd565b6004355f526004602052600460405f200161050061ff00198254161790555f80f35b346101bc575f3660031901126101bc57602060405169152d02c7e14af68000008152f35b346101bc575f3660031901126101bc576020600354604051908152f35b346101bc5760403660031901126101bc5761044161173a565b6104496118bd565b60018060a01b03165f52600560205260405f2061046960243582546117bc565b9055005b346101bc575f3660031901126101bc575f546040516001600160a01b039091168152602090f35b346101bc575f3660031901126101bc576104ac6118bd565b5f80546001600160a01b0319811682556001600160a01b03167f8be0079c531659141344cd1fd0a4f28419497f9722a3daafe3b4186f6b6457e08280a3005b346101bc5760403660031901126101bc5761050461173a565b60243590335f52600560205261051f60405f205415156117c9565b335f52600560205261053760405f2054831115611807565b6001600160a01b031633811461057657335f52600560205260405f2061055e8382546118b0565b90555f52600760205261046960405f209182546117bc565b60405162461bcd60e51b815260206004820152601760248201527f43616e6e6f742064656c656761746520746f2073656c660000000000000000006044820152606490fd5b346101bc5760403660031901126101bc576024356001600160401b0381116101bc576106066105f06020923690600401611750565b6004355f5260048352600b60405f200190611891565b54604051908152f35b346101bc575f3660031901126101bc57602060405169d3c21bcecceda10000008152f35b346101bc5760603660031901126101bc5760043560243560ff81168091036101bc576044356001600160401b0381116101bc57610674903690600401611750565b335f52600560205261068b60405f205415156117c9565b825f52600460205260405f20918254156108b95760068301928354421161087e57335f52600660205260405f20855f5260205260ff60405f20541661084957600282116108105784917fac2328d89f00d5fa7ef8fe55063b142bbaf793a4050f056aa67471a6d6edf86e91335f52600560205260405f205490335f52600660205260405f20855f5260205260405f20600160ff1982541617905582155f146107e55760080161073b8282546117bc565b90555b60405191825260208201526060604082015280610760339560608301906116fc565b0390a354421161076c57005b5f526004602052600460405f20600781015460088201549069d3c21bcecceda10000006107a761079c84846117bc565b6009860154906117bc565b10156107bf57505001805461ff001916610300179055005b11156107d55701805461ff001916610200179055005b01805461ff001916610300179055005b60018303610802576007016107fb8282546117bc565b905561073e565b6009016107fb8282546117bc565b60405162461bcd60e51b8152602060048201526011602482015270496e76616c696420766f7465207479706560781b6044820152606490fd5b60405162461bcd60e51b815260206004820152600d60248201526c105b1c9958591e481d9bdd1959609a1b6044820152606490fd5b60405162461bcd60e51b8152602060048201526013602482015272159bdd1a5b99c81c195c9a5bd908195b991959606a1b6044820152606490fd5b60405162461bcd60e51b8152602060048201526012602482015271141c9bdc1bdcd85b081b9bdd08199bdd5b9960721b6044820152606490fd5b346101bc5760403660031901126101bc576001600160a01b0361091461173a565b165f52600660205260405f206024355f52602052602060ff60405f2054166040519015158152f35b346101bc575f3660031901126101bc5760206040516202a3008152f35b346101bc5760a03660031901126101bc576004356001600160401b0381116101bc57610989903690600401611750565b6024356001600160401b0381116101bc576109a8903690600401611750565b60443560058110156101bc57606435906001600160401b0382116101bc57366023830112156101bc578160040135936109e0856117a5565b926109ee604051948561163b565b85845260208401906024829760051b820101903682116101bc5760248101925b8284106110ad5750505050608435916001600160401b0383116101bc57366023840112156101bc57826004013591610a45836117a5565b93610a53604051958661163b565b838552602085016024819560051b830101913683116101bc57602401905b82821061109d57505050335f526005602052610a9260405f205415156117c9565b335f526005602052610ab469152d02c7e14af680000060405f20541015611807565b8451845103611063576002545f198114610f16576001019081600255815f52600460205260405f209682885560018801336bffffffffffffffffffffffff60a01b8254161790556002880182516001600160401b038111610e8b57610b198254611603565b601f8111611033575b506020601f8211600114610fd3579080610b50925f91610fc8575b508160011b915f199060031b1c19161790565b90555b805160038901916001600160401b038211610e8b57610b728354611603565b601f8111610f98575b50602090601f8311600114610f3557610bab92915f9183610f2a575b50508160011b915f199060031b1c19161790565b90555b60048701805461ffff191660ff8516179055426005880181815562093a808201918210610f165760068901918255600c89018851680100000000000000008111610e8b578154818355808210610e9f575b508b9a9b915f5260205f20915f905b828210610d6a57505050505f99600b81019a5b8951811015610c5557808a610c4e8e610c4884610c418f97600198611869565b5194611869565b51611891565b5501610c21565b5088888b60405191602083019360608401906040865251809152608084019060808160051b86010193915f905b828210610d3f5750505050602090601f1984840301604085015251918281520199905f5b818110610d29575050509081610cea600a937ffd3a4372829eebfa1fcdd5a6e4bbbeb5b140261c36928520367a19665a17a996999a9b03601f19810183528261163b565b51902091015554905490610d17610d0c604051946080865260808601906116fc565b966020850190611720565b604083015260608201528033940390a3005b82518c5260209b8c019b90920191600101610ca6565b90919294602080610d5c600193607f198b820301865289516116fc565b970192019201909291610c82565b809d9c9d518051906001600160401b038211610e8b57610d8a8654611603565b601f8111610e50575b50602090601f8311600114610de75792610dca836001959460209487965f92610ddc5750508160011b915f199060031b1c19161790565b87555b019401910190929c9b9c610c0e565b015190505f80610b97565b90601f19831691875f52815f20925f5b818110610e385750936020936001969387969383889510610e20575b505050811b018755610dcd565b01515f1960f88460031b161c191690555f8080610e13565b92936020600181928786015181550195019301610df7565b610e7b90875f5260205f20601f850160051c81019160208610610e81575b601f0160051c0190611853565b5f610d93565b9091508190610e6e565b634e487b7160e01b5f52604160045260245ffd5b825f528160205f2091820191015b818110610eba5750610bff565b80610ec760019254611603565b80610ed4575b5001610ead565b601f81118314610ee957505f81555b8f610ecd565b610f0590825f5283601f60205f20920160051c82019101611853565b805f525f6020812081835555610ee3565b634e487b7160e01b5f52601160045260245ffd5b015190508c80610b97565b90601f19831691845f52815f20925f5b818110610f805750908460019594939210610f68575b505050811b019055610bae565b01515f1960f88460031b161c191690558b8080610f5b565b92936020600181928786015181550195019301610f45565b610fc290845f5260205f20601f850160051c81019160208610610e8157601f0160051c0190611853565b8b610b7b565b90508501518d610b3d565b601f19821690835f52805f20915f5b81811061101b57509083600194939210611003575b5050811b019055610b53565b8601515f1960f88460031b161c191690558c80610ff7565b9192602060018192868b015181550194019201610fe2565b61105d90835f5260205f20601f840160051c81019160208510610e8157601f0160051c0190611853565b8b610b22565b60405162461bcd60e51b81526020600482015260126024820152710a0c2e4c2dacae8cae440dad2e6dac2e8c6d60731b6044820152606490fd5b8135815260209182019101610a71565b83356001600160401b0381116101bc576020916110d1839260243691870101611750565b815201930192610a0e565b346101bc575f3660031901126101bc576111216040516110fd60408261163b565b60038152621194d160ea1b60208201526040519182916020835260208301906116fc565b0390f35b346101bc575f3660031901126101bc5761112160405161114660408261163b565b600e81526d466c61736853706c69742044414f60901b60208201526040519182916020835260208301906116fc565b346101bc5760203660031901126101bc57600435600260015414611484576002600155805f52600460205260405f206004810160ff815460081c1660068110156113af576002036114405760068201546202a3008101809111610f165742106113fb57600d82019081549160ff83166113c357600160ff9384191617905561040061ff0019825416178155541660058110156113af57806112d25750905f600c8301805492600b85019454925b8481101561129f57600190835f5261123e8160205f200161165c565b7f83ba59f61577249be5e1d5d48f41b4be728e3ddb0c1b04c988d7ce5205ebb8ec6060602061126d8b85611891565b5493604051918183925191829101835e81015f815203902092604051905f82526020820152886040820152a201611222565b5093505050505b33907f9c85b616f29fca57a17eafe71cf9ff82ffef41766e2cf01ea7f8f7878dd3ec245f80a360018055005b6001146112e0575b506112a6565b600b01602660405165185b5bdd5b9d60d21b815282600682015220549060405190681c9958da5c1a595b9d60ba1b82526009820152602960018060a01b0391205416906003549182821161136a575f8281949261133f839584956118b0565b600355828215611361575bf11561135657816112da565b6040513d5f823e3d90fd5b506108fc61134a565b60405162461bcd60e51b815260206004820152601d60248201527f496e73756666696369656e742074726561737572792062616c616e63650000006044820152606490fd5b634e487b7160e01b5f52602160045260245ffd5b60405162461bcd60e51b815260206004820152601060248201526f105b1c9958591e48195e1958dd5d195960821b6044820152606490fd5b60405162461bcd60e51b815260206004820152601760248201527f457865637574696f6e2064656c6179206e6f74206d65740000000000000000006044820152606490fd5b606460405162461bcd60e51b815260206004820152602060248201527f50726f706f73616c206e6f7420726561647920666f7220657865637574696f6e6044820152fd5b633ee5aeb560e01b5f5260045ffd5b346101bc575f3660031901126101bc576020600254604051908152f35b346101bc5760203660031901126101bc5760206114f56001600160a01b036114d661173a565b16805f526005835260405f2054905f526007835260405f2054906117bc565b604051908152f35b346101bc5760203660031901126101bc57600480355f90815260209190915260409020805460018201546001600160a01b03169161153d6002820161165c565b6115496003830161165c565b9160048101549260058201546006830154600784015490600885015492600986015494600a87015496600d015460ff16976040519b8c9b8c5260208c015260408b016101a090526101a08b0161159e916116fc565b8a810360608c01526115af916116fc565b976115c060808b0160ff8316611720565b60a08a019060081c60ff16906115d59161172d565b60c089015260e088015261010087015261012086015261014085015261016084015215156101808301520390f35b90600182811c92168015611631575b602083101461161d57565b634e487b7160e01b5f52602260045260245ffd5b91607f1691611612565b90601f801991011681019081106001600160401b03821117610e8b57604052565b9060405191825f82549261166f84611603565b80845293600181169081156116da5750600114611696575b506116949250038361163b565b565b90505f9291925260205f20905f915b8183106116be575050906020611694928201015f611687565b60209193508060019154838589010152019101909184926116a5565b90506020925061169494915060ff191682840152151560051b8201015f611687565b805180835260209291819084018484015e5f828201840152601f01601f1916010190565b9060058210156113af5752565b9060068210156113af5752565b600435906001600160a01b03821682036101bc57565b81601f820112156101bc578035906001600160401b038211610e8b5760405192611784601f8401601f19166020018561163b565b828452602083830101116101bc57815f926020809301838601378301015290565b6001600160401b038111610e8b5760051b60200190565b91908201809211610f1657565b156117d057565b60405162461bcd60e51b815260206004820152600f60248201526e2737903b37ba34b733903837bbb2b960891b6044820152606490fd5b1561180e57565b60405162461bcd60e51b815260206004820152601960248201527f496e73756666696369656e7420766f74696e6720706f776572000000000000006044820152606490fd5b81811061185e575050565b5f8155600101611853565b805182101561187d5760209160051b010190565b634e487b7160e01b5f52603260045260245ffd5b6040518151909260209284929081908501845e82019081520301902090565b91908203918211610f1657565b5f546001600160a01b031633036118d057565b63118cdaa760e01b5f523360045260245ffdfea26469706673582212205d90cf00cfc0786008cb59a19541ddbe4c468942cf4ef9ea7789b4d40bed262864736f6c634300081e0033",
    "linkReferences": {}
  },
  "methodIdentifiers": {
    "EXECUTION_DELAY()": "37f135d7",
    "PROPOSAL_THRESHOLD()": "a6c26603",
    "QUORUM_THRESHOLD()": "5e510b60",
    "TOKEN_NAME()": "18821400",
    "TOKEN_SYMBOL()": "2a905318",
    "VOTING_PERIOD()": "b1610d7e",
    "castVote(uint256,uint8,string)": "470b7622",
    "createProposal(string,string,uint8,string[],uint256[])": "34d58b32",
    "delegateVotes(address,uint256)": "609b2486",
    "delegatedVotes(address)": "d364d4d4",
    "emergencyPause(uint256)": "ad3fbe30",
    "executeProposal(uint256)": "0d61b519",
    "fundTreasury()": "b9c18685",
    "getProposal(uint256)": "c7f758a8",
    "getProposalParameters(uint256,string)": "5eafdecd",
    "getTreasuryBalance()": "9b5655dc",
    "getUserVotingPower(address)": "0baca2e5",
    "grantVotingPower(address,uint256)": "919a1539",
    "hasVoted(address,uint256)": "42545825",
    "owner()": "8da5cb5b",
    "proposalCounter()": "0c0512e9",
    "proposals(uint256)": "013cf08b",
    "renounceOwnership()": "715018a6",
    "transferOwnership(address)": "f2fde38b",
    "treasuryBalance()": "313dab20",
    "votingPower(address)": "c07473f6"
  },
  "id": 31
}